:100000000C94F4000C941C010C941C010C94230718
:100010000C9423070C9423070C9482050C941C0168
:100020000C941C010C941C010C94E0050C948A06A1
:100030000C9499050C941C010C941C010C941C014B
:100040000C94990E0C941C010C94A40D0C947E0D30
:100050000C941C010C941C010C941C010C941C01AC
:100060000C941C010C941C014B045104E203FB038F
:1000700064040D041504E1042B044B040D04510425
:10008000E203FB03640483049604AA049010A31003
:10009000AB10B110B910BF10C710CA10D5104C6FFB
:1000A0006F6B696E6720666F7220475053206465DE
:1000B00076696365206F6E20677073506F7274008D
:1000C0004E4D4541475053206F626A6563742073FB
:1000D000697A65203D2000666978206F626A6563F1
:1000E000742073697A65203D20004E4D45416C6F48
:1000F000632E494E4F3A2073746172746564004CEC
:100100006F63616C2074696D65004C6F6F6B696E15
:100110006720666F72204750532064657669636577
:10012000206F6E20677073506F7274004E4D4541A2
:1001300074696D657A6F6E652E494E4F3A207374FF
:10014000617274656400001F1C1F1E1F1E1F1F1E8E
:100150001F1E1F5A44410056544700524D4300474A
:100160005356004753540047534100474C4C0047F7
:100170004741006F016B01670163015F015B01573C
:100180000153010100000873010000000023002654
:1001900000290000000000250028002B00040404B2
:1001A0000404040404020202020202030303030320
:1001B00003010204081020408001020408102001FD
:1001C000020408102000000000240027002A00007C
:1001D0000000080002010000030407000000000006
:1001E00000000000FA17B51711241FBECFEFD8E0AA
:1001F000DEBFCDBF26E0A0E0B4E001C01D92AA356D
:10020000B207E1F714E0A0E0B1E0E8E1F8E302C0F2
:1002100005900D92A030B107D9F710E0C3EFD0E000
:1002200004C02197FE010E94FD19C23FD107C9F702
:100230000E94E9100C94FF1B0C94000021E0FC01CB
:100240008281863009F020E0822F089581E00895B0
:1002500083E891E008955091080440910704852FA8
:1002600090E0242F30E0541710F4805B9F4F821BE6
:10027000930B089580910804E09107048E1751F0C4
:10028000EF5FE03508F0E0E0F0E0EC54FB4F8081F8
:1002900090E008958FEF9FEF08958091080490916A
:1002A0000704891769F09F5F903508F090E0E92F07
:1002B000F0E0EC54FB4F80819093070490E00895A8
:1002C0008FEF9FEF089520910204309103042817C7
:1002D000390771F49091000480910104981741F05E
:1002E000E0910004F0E0E65DFB4F808190E008952E
:1002F0008FEF9FEF089508951F93CF93DF93DC0155
:100300005C968D919C915D97009739F421E030E0E7
:1003100013963C932E9312973BC05196ED91FC910E
:10032000529750962C915097322F30951FB75E966A
:100330004C915E97742F727041FD6095F8944081E6
:10034000772311F0422B01C043234083EC01219716
:10035000F1F748E0508160FF02C0522B01C05323E7
:100360005083EC012197F1F76695415099F7808110
:10037000772319F08323808302C0282B20831FBF9B
:100380005C968D919C915D970197F1F781E090E0EB
:10039000DF91CF911F9108952091020430910304C1
:1003A0002817390771F4809101042091000490E02E
:1003B000805C9F4F821B910960E470E00E94CA1923
:1003C000089580E090E008952091020430910304A4
:1003D00028173907B9F49091000480910104981707
:1003E00089F0E0910004F0E0E65DFB4F8081209110
:1003F000000430E02F5F3F4F2F733327209300041A
:1004000090E008958FEF9FEF0895FC01108208950A
:100410005F926F927F928F929F92AF92BF92CF9294
:10042000DF92EF92FF920F931F93CF93DF93EC0134
:100430008E859F85A889B9890196A11DB11D8E87DA
:100440009F87A88BB98B643291F48DA984FF02C079
:100450008F7E8DAB19AA1A8281E08EAB1BAA8DA963
:100460008D7F8F7D8DAB1D821C821B823EC1162F1E
:100470000EA9023061F56A3219F483E08EAB1EC01A
:1004800080EE860F8F35E0F489A9862789ABE88155
:10049000F9810084F185E02DCE010995811105C017
:1004A000CE01C0960E9405021EC11C3209F017C180
:1004B0008DA98D7F8DAB8AA98F5F8AAB1BAA15C1D1
:1004C000CE01C0960E9405021A821EAAEAC001301F
:1004D00009F079C089A9862789AB6C3269F48A81D1
:1004E000882309F400C1CE01C0960E9405020AAB20
:1004F0001BAA82E08EABF9C00BA98DA9011105C022
:10050000603519F480628DABEAC085FF13C00430FA
:1005100078F4FE01E00FF11D1283E881F981048077
:10052000F581E02D612FCE0109958111D8C0DBC086
:10053000045004C0023008F4D2C00250E881F981AE
:100540000280F381E02DCE0109956A80E62CF12C22
:10055000C02ED12CFC0133968490FC01749066204F
:1005600009F4A2C0671438F1282D30E0270D311DA1
:10057000E216F30604F5962C971897C093949814F6
:10058000D0F4FB01E90DF11DE90DF11DA591B49128
:10059000A9015D01A21AB30AE42FE21BE01708F4D7
:1005A00090C09D01F901EC0DFD1DE4911E1709F4A9
:1005B00094C01E171CF70196FC0185919491009739
:1005C00009F0C8CF90C0033009F068C010628FE90D
:1005D000810F863010F4175501C010532BA989A93B
:1005E000612F70E021110FC091E09BAB90E024E0FF
:1005F000959587952A95E1F7FF24F3948617970739
:10060000B1F5F12C34C08F7090E0FF24F39486177D
:10061000970709F4F12C8617970749F58DA981FFF3
:100620000CC08D7F8DAB2F5F2BABE881F9810084EF
:10063000F185E02D6CE2CE0109958E819F81A88520
:10064000B9850196A11DB11D8E839F83A887B987A7
:10065000E881F9810680F781E02DCE0109959DA9F9
:1006600080FB94F99DAB1EAA02E010E002C001E0FD
:1006700010E0FF2009F43BC08A859B85AC85BD85D1
:100680000196A11DB11D8A879B87AC87BD87CE01CE
:10069000C0960E9405021A821EAA29C0011125C017
:1006A0001A8200E010E023C0912CFC013496659181
:1006B0007491FB01E90DF11DE90DF11D25913491B6
:1006C00071CFFA015490F501E40FF51FE4914F5FEB
:1006D0005F4F5E1609F460CF64CF970C9A828BA9A6
:1006E0008F5F8BAB02C01A821EAA01E010E0C80126
:1006F000DF91CF911F910F91FF90EF90DF90CF90FE
:10070000BF90AF909F908F907F906F905F90089573
:10071000809106048111FCCF0895809105048F5FBC
:10072000843408F080E0909104049817E1F32FB727
:10073000F89490910604992341F0E82FF0E0E659EF
:10074000FB4F6083809305041DC081E08093060405
:100750006093AF041092AE0482E086BB80916F007C
:10076000826080936F00809180008F7B806880938F
:10077000800080918400909185004096909389003C
:10078000809388002FBF81E090E00895089580E075
:1007900090E00895CF93DF93EC01462F8A8181305A
:1007A00021F0863009F46AC00CC1EAA98E2F90E0CE
:1007B000FC013197E930F10508F003C1EC5CFF4F13
:1007C0000C94FD198DA982FFFCC08BA98111F9C081
:1007D000433509F0F6C08A899B89AC89BD89B095FB
:1007E000A095909581959F4FAF4FBF4F8A8B9B8B64
:1007F000AC8BBD8BE6C04C3231F48BA9811103C0A8
:100800008DA98B7F8DAB8DA982FFDBC0BE016A5E97
:100810007F4FCE010E94E30ED4C08BA98111D1C0BD
:10082000642FCE010E94B50BCCC08DA98E7F8DABFD
:100830008BA9811105C06C3209F4C3C0405309C0B3
:100840006C3209F4BBC08EA140539AE0899F400DE1
:1008500011244EA3B3C022E0BE01665E7F4FCE01DD
:100860000E94EB0F882309F4ACC021E09BA99111F1
:1008700001C020E098A920FB94F96AC0EAA98E2F54
:1008800090E0FC013197E930F10508F09AC0E35C93
:10089000FF4F0C94FD19642FCE01DF91CF910C9482
:1008A0007F108BA9882339F08DA982FF8AC0BE01F1
:1008B0006E5E7F4FAECF91E04C3209F490E08DA98F
:1008C00090FB82F98DABF0CF9DA992FB882780F930
:1008D00092FF77C09BA9911174C098A9986098ABBA
:1008E000473509F06EC04E895F89688D798D7095A6
:1008F0006095509541955F4F6F4F7F4F4E8B5F8B4B
:10090000688F798F5FC023E0BE01625E7F4FCE01AA
:100910000E94EB0F882309F454C021E09BA9911198
:1009200001C020E098A920FB95F912C022E0BE0189
:100930006E5D7F4FCE010E94EB0F882309F441C00A
:1009400021E09BA9911101C020E098A920FB96F914
:1009500098AB38C08BA98230F1F038F4882389F045
:10096000813079F56BA5605313C08430F9F0C8F07D
:10097000853039F56DA56053460F4DA788A9826073
:100980001FC06C32F1F0440F4056642F660F660FA3
:10099000460F4BA716C0440F4056642F660F660FD4
:1009A00002C06CA56053460F4CA70BC0440F4056C5
:1009B000642F660F660F460F4DA703C088A9806895
:1009C00088AB81E0DF91CF9108959C01237033279C
:1009D000232BA1F460E971E00E94B6199C010097F5
:1009E00059F08436910551F0883C910539F081E049
:1009F0002C32314021F402C081E0089580E0089556
:100A0000EF92FF920F931F93CF93DF937C01FC0132
:100A1000C481D0E02197068110E00053184FC8012F
:100A20000E94E504F7012581E7E4F1E091E09217E7
:100A300058F43491C30FD11D882319F0923009F472
:100A400021969F5F3196F3CF7801F1E0EF1AF1081C
:100A5000003D174051F0C7010E94E50490E0835922
:100A60009E4FC80FD91F8701EFCFCE01DF91CF91E5
:100A70001F910F91FF90EF900895CF92DF92EF9228
:100A8000FF92CF93DF93EC010E940005DC0120E888
:100A900031E541E050E00E9465196B017C012A813B
:100AA000223160F440E15EE0249FC001259F900D5B
:100AB0001124C80ED91EE11CF11C09C030E0A0E1D0
:100AC000BEE00E94A719C60ED71EE81EF91E298196
:100AD0008CE3289F900111246881862F90E0A0E08C
:100AE000B0E0820F931FA11DB11DBC01CD016C0DA3
:100AF0007D1D8E1D9F1DDF91CF91FF90EF90DF90A8
:100B0000CF9008951F920F920FB60F9211248F93DA
:100B10000FB6F894A895809160008861809360007A
:100B2000109260000FBE8F910F900FBE0F901F901C
:100B300018951F920F920FB60F9211242F938F9337
:100B40009F93EF93FF9380916F008B7F80936F0053
:100B5000809181008F7B8093810080910904209196
:100B6000B30420589091B204893020F49695922BCA
:100B70008F5FFACF9093B204809108048F5F803525
:100B800008F080E020910704821739F0E82FF0E0A8
:100B9000EC54FB4F908380930804109209048091D9
:100BA00081008F7B809381001092B304FF91EF91BD
:100BB0009F918F912F910F900FBE0F901F901895BE
:100BC0001F920F920FB60F9211242F933F934F93C2
:100BD0005F936F937F938F939F93AF93BF93EF93A5
:100BE000FF9380918600909187004091B3042091FB
:100BF0008100442331F02F7B209381001092B304B5
:100C000006C020642093810020E82093B304309133
:100C10000904311125C041116CC020910A043091A2
:100C20000B04280F391F30938B0020938A0024E097
:100C300026BB20916F00246020936F0020910C044C
:100C400030910D04820F931F36952795820F931FC5
:100C50009093B1048093B00481E08093090449C06B
:100C60004091B0045091B10460910C0470910D0456
:100C7000DB01A095B095E091B3042091B204841BF0
:100C8000950BA817B90768F126952E2B460F571F0D
:100C90003F5F861B970B3930A0F32093B2048091FD
:100CA0006F008B7F80936F00809108048F5F803589
:100CB00008F080E090910704891749F0E82FF0E0F0
:100CC0009091B204EC54FB4F908380930804809180
:100CD00081008F7B809381001092B30410920904ED
:100CE00008C02093B2045093B1044093B0043093F1
:100CF0000904FF91EF91BF91AF919F918F917F91E7
:100D00006F915F914F913F912F910F900FBE0F9078
:100D10001F9018951F920F920FB60F9211242F93C8
:100D20003F934F935F936F937F938F939F93EF9333
:100D3000FF93809106046091AF0420918800309168
:100D4000890040910C0450910D049091AE048A30BA
:100D5000F8F4240F351F893019F0762F717001C017
:100D600071E066958F5F791791F3909180007723FA
:100D700011F0906C02C09F7B90689093800030933C
:100D80008900209388007093AE046093AF044AC03A
:100D900090910504E09104049E1319C08A3051F427
:100DA0008BE080930604240F351F30938900209335
:100DB00088003AC010920604809180008F7380935F
:100DC000800080916F008D7F80936F002DC0EF5F5A
:100DD000E43408F0E0E0E0930404F0E0E659FB4F6F
:100DE00090819093AF041092AE04909180009F7B0D
:100DF0009068909380008A3059F480910C0490910F
:100E00000D04280F391F309389002093880009C0F2
:100E10008091840090918500409690938900809302
:100E2000880081E080930604FF91EF919F918F915C
:100E30007F916F915F914F913F912F910F900FBED6
:100E40000F901F9018951F920F920FB60F921124BA
:100E50002F933F934F935F936F937F938F939F93C2
:100E6000AF93BF93EF93FF93E0910204F0910304DB
:100E7000309709F451C0968DA685B785858591FF79
:100E800004C09C91892329F447C09C91892309F0CF
:100E900043C0A389B4899C918589809589238C93CB
:100EA000868997890197F1F7608D718DA685B78541
:100EB000558538E020E0CB010197F1F7822F90E0D3
:100EC00095958795282F4C91452309F0206831503E
:100ED00091F7868D81FD20958091010490E0019627
:100EE0008F73992730910004381749F0A0910104BD
:100EF000B0E0A65DBB4F2C938093010403C0868DA8
:100F00008160868F828D938D0197F1F7A389B489D3
:100F10009C918589892B8C93FF91EF91BF91AF9123
:100F20009F918F917F916F915F914F913F912F9101
:100F30000F900FBE0F901F901895CF93DF93EC0189
:100F400089ED93E00E941F0AC11580E1D80798F44B
:100F50008CED93E00E941F0ACF3FD10509F058F4B1
:100F60008CED93E00E941F0AC031D10520F48CED76
:100F700093E00E941F0ABE0180E090E040E1DF9113
:100F8000CF910C94DE09CF93C82F89ED93E00E9496
:100F90001F0AC03120F48CED93E00E941F0A6C2FD1
:100FA00070E080E090E040E1CF910C94DE094F9238
:100FB0005F926F927F928F929F92AF92BF92CF92E9
:100FC000DF92EF92FF920F931F93CF93DF93EC0189
:100FD0006A017B010E94B109F7FE0CC0F094E09415
:100FE000D094C094C11CD11CE11CF11C6DE2CE0157
:100FF0000E94E10BC701B60120E432E44FE050E06B
:101000000E94DE1949015A01BA01A901CE010E94CC
:1010100063096EE2CE010E94E10BA501940160EC30
:101020007DEB80EF9FEF0E943319C60ED71EE81E9E
:10103000F91E06E010E080EA882E86E8982EAA24A1
:10104000A394B12C9AE0492E512C612C712CC81418
:10105000D904EA04FB0484F40150110969F060E347
:10106000CE010E94E10BC501B401A30192010E94CF
:10107000DE1949015A01EBCFB701A601CE010E944A
:101080006309CE01DF91CF911F910F91FF90EF90F7
:10109000DF90CF90BF90AF909F908F907F906F9098
:1010A0005F904F9008952F923F924F925F926F9270
:1010B0007F928F929F92AF92BF92CF92DF92EF92E8
:1010C000FF920F931F93CF93DF9300D01F92CDB762
:1010D000DEB76B017C015B834A8397FF1DC081E013
:1010E000FA018083F094E094D094C094C11CD11C88
:1010F000E11CF11C8A819B8106969B838A8305E013
:1011000010E08AE0882E912CA12CB12C94E6492E77
:10111000512C612C712C04C0EA81FB811082EACF32
:10112000C701B601A50194010E94DE196983CA01B5
:10113000B901A50194010E94DE19262E362EC701A1
:10114000B601A30192010E94DE1969017A01F981B9
:10115000F11103C00130110529F039808AE0289E81
:10116000300C1124EA81FB813292FB83EA83015027
:101170001109B1F60F900F900F90DF91CF911F9151
:101180000F91FF90EF90DF90CF90BF90AF909F9026
:101190008F907F906F905F904F903F902F90089529
:1011A000FC0114821582168217821082118212822B
:1011B000138211861086138612861586148617866A
:1011C0001686118A108A138A128A148A168A178A36
:1011D000158A81E0818F828F138E87E0808F148E35
:1011E000158ECF014E960C940502CF92DF92EF92AE
:1011F000FF920F931F93CF93DF936C017A018B01C2
:10120000C0E0D0E0CE15DF0581F0D8016D918D01F1
:10121000D601ED91FC910190F081E02DC601099578
:10122000892B11F02196EECF7E01C701DF91CF917E
:101230001F910F91FF90EF90DF90CF90089582E380
:1012400096E00E94CC01892BD1F382E396E00E94C4
:10125000E4010895009769F0FC0101900020E9F78E
:101260003197AF01481B590BBC0185E095E00C9408
:10127000F50880E090E008950F931F93CF93DF93DC
:10128000EC0188819981009729F02A813B812617FA
:10129000370788F48B016F5F7F4F0E94241B0097F4
:1012A00061F0998388831B830A832C813D81232BE2
:1012B00011F4FC01108281E001C080E0DF91CF9148
:1012C0001F910F910895CF92DF92EF92FF920F93AB
:1012D0001F93CF93DF93CDB7DEB72E970FB6F89459
:1012E000DEBF0FBECDBF8C01CB01BA012AE0AE013B
:1012F0004F5F5F4F6A010E94F218F60101900020D3
:10130000E9F73197EC19FD09E1F0D8011496ED9059
:10131000FC901597EE0EFF1EB701C8010E943C0914
:10132000882381F0F8012081318184819581B60183
:10133000820F931F0E94F81BD8011596FC92EE9223
:10134000149781E02E960FB6F894DEBF0FBECDBF86
:10135000DF91CF911F910F91FF90EF90DF90CF9091
:101360000895CF93DF93EC01198218821B821A82B1
:101370001D821C8260E070E00E943C092881398156
:1013800081110FC02115310519F0C9010E949B1A66
:10139000198218821D821C821B821A82DF91CF91D2
:1013A00008951D821C8260EE73E0C901DF91CF9128
:1013B0000C94F81B8EED93E00C942A098F929F9267
:1013C000AF92BF920F931F93CF93DF93CDB7DEB74A
:1013D000A1970FB6F894DEBF0FBECDBF19A2423061
:1013E00008F44AE08E010F5D1F4F842E912CA12C32
:1013F000B12CA50194010E944319E62FB901CA013D
:1014000001501109EA3014F4E05D01C0E95CD80133
:10141000EC93232B242B252B61F7C8010E942A096A
:10142000A1960FB6F894DEBF0FBECDBFDF91CF916E
:101430001F910F91BF90AF909F908F9008950C9443
:101440002A09CF92DF92EF92FF92CF93DF936C0144
:10145000990FEE08FF08F7FE19C06DE285E095E0F0
:101460000E947A0CEC0166277727CB016C197D0965
:101470008E099F094AE00E94DE098C0F9D1FDF91B3
:10148000CF91FF90EF90DF90CF9008954AE0C70191
:10149000B601DF91CF91FF90EF90DF90CF900C9449
:1014A000DE093F924F925F926F927F928F929F924E
:1014B000AF92BF92CF92DF92EF92FF920F931F9362
:1014C000CF93DF935C016B017A010E941F09582EB4
:1014D0000E941F09782E0E941F09682E0E941F0972
:1014E000752476247826C82FD0E0CE010E94031AF6
:1014F0008C014C013C2E4D2EC401801B910B8C178E
:101500009D073CF40E941F09F40181934F01782646
:10151000F1CFF5015082F6016082F701118300835B
:101520000E941F09781621F033243A9444244A94E7
:10153000832D942DDF91CF911F910F91FF90EF900C
:10154000DF90CF90BF90AF909F908F907F906F90E3
:101550005F904F903F900895AF92BF92CF92DF92ED
:10156000EF92FF920F931F93CF93F82E162F042F15
:101570006901C62FC427C8270E94C30780E00E94C4
:10158000C307812F0E94C307802F0E94C3076F2DBE
:1015900082E396E00E947C0160E082E396E00E9494
:1015A0007C01612F82E396E00E947C01602F82E340
:1015B00096E00E947C01760110E0C7018C199D091C
:1015C0008017910774F45701F70161917F01C627D5
:1015D00082E396E00E947C01F50180810E94C307AE
:1015E000ECCF6C2F82E396E00E947C018C2F0E944E
:1015F000C307CF911F910F91FF90EF90DF90CF9095
:10160000BF90AF900C94DA09CF93DF930E942A0920
:10161000EC010E94DA098C0F9D1FDF91CF91089594
:10162000AF92BF92CF92DF92EF92FF920F931F93F0
:10163000CF93DF9300D000D0CDB7DEB7B82EA92E60
:10164000F62E6A0186E0E82EE60E8E2D90E00E94CE
:10165000031A8C01FC01A082B182128287E083838D
:1016600081E08483F5824F2D50E0B601C8010696D3
:101670000E94EF1B81EE93E00E94040B98014E2D17
:1016800061E085E00E94AC0AC8010E949B1A1C829E
:101690001B821A821982AE014F5F5F4FBE016D5FE0
:1016A0007F4FCE0104960E94510A8C81853019F536
:1016B0008B81813801F5E981FA8100811181102740
:1016C00001271027F2808AEE93E00E941F0AC801CA
:1016D0000E949D070E94DA0987EF93E00E941F0A8B
:1016E0008F2D0E94C3070E94DA0981E0F11001C02A
:1016F00080E08093040589819A810E949B1A0F9053
:101700000F900F900F90DF91CF911F910F91FF904D
:10171000EF90DF90CF90BF90AF9008950F931F93FD
:10172000CF93DF938C01C0E0D0E0F801EC0FFD1FF8
:101730006491662341F085E095E00E947A0C892B44
:1017400011F02196F2CFCE01DF91CF911F910F9131
:101750000895CF93DF930E948E0BEC010E94DA096B
:101760008C0F9D1FDF91CF910895FC01613311F023
:10177000613411F483E01FC0603321F06E3411F046
:10178000663511F417A618C0623311F0643411F4F1
:1017900084E011C0633311F487E00DC0643311F4A9
:1017A00086E009C0653311F485E005C0663311F0A9
:1017B000653429F481E087A780A9816080AB80E04F
:1017C0000895EF92FF920F931F93CF93DF9300D072
:1017D000CDB7DEB78C0169831A82FC01E480F58005
:1017E000FFEFEF1AFF0AB7010E943C09882381F03E
:1017F000F8012081318184819581BE016F5F7F4F27
:10180000820F931F0E94F81BF801F582E48281E0A9
:101810000F900F90DF91CF911F910F91FF90EF905C
:101820000895FC01538D448D252F30E0842F90E0E6
:10183000821B930B541710F0CF96089501970895CB
:10184000FC01918D828D981761F0828DDF01A80FC8
:10185000B11D5D968C91928D9F5F9F73928F90E0EA
:1018600008958FEF9FEF0895FC01918D828D981759
:1018700031F0828DE80FF11D858D90E008958FEF96
:101880009FEF0895FC01918D228D892F90E0805C5F
:101890009F4F821B91098F739927089585E095E0EA
:1018A0000E94420C21E0892B09F420E0822F089548
:1018B000FC01848DDF01A80FB11DA35ABF4F2C91ED
:1018C000848D90E001968F739927848FA689B789BC
:1018D0002C93A089B1898C91837080648C93938DB3
:1018E000848D981306C00288F389E02D80818F7D56
:1018F00080830895EF92FF920F931F93CF93DF930E
:10190000EC0181E0888F9B8D8C8D981305C0E88950
:10191000F989808185FD26C0F62E0B8D10E00F5FC2
:101920001F4F0F731127E02E8C8DE8120CC00FB6DD
:1019300007FCFACFE889F989808185FFF5CFCE01D0
:101940000E94580CF1CF8B8DFE01E80FF11DE35A78
:10195000FF4FF0829FB7F8940B8FEA89FB89808153
:1019600080620AC09FB7F894EE89FF896083E88996
:10197000F98980818370806480839FBF81E090E0DB
:10198000DF91CF911F910F91FF90EF900895CF932A
:10199000DF93EC01888D8823C9F0EA89FB89808177
:1019A00085FD05C0A889B9898C9186FD0FC00FB649
:1019B00007FCF5CF808185FFF2CFA889B9898C918A
:1019C00085FFEDCFCE010E94580CE7CFDF91CF917C
:1019D000089580E090E0892B29F00E944E0C81113F
:1019E0000C94000008953FB7F894809152069091AE
:1019F0005306A0915406B091550626B5A89B05C084
:101A00002F3F19F00196A11DB11D3FBFBA2FA92F7D
:101A1000982F8827820F911DA11DB11DBC01CD01FA
:101A200042E0660F771F881F991F4A95D1F70895E6
:101A30008F929F92AF92BF92CF92DF92EF92FF92DE
:101A40004B015C016B017C0182E0F694E794D79432
:101A5000C7948A95D1F7D501C40124E0B695A7951E
:101A6000979587952A95D1F7C80ED91EEA1EFB1EB9
:101A7000D701C60134E0B695A795979587953A9515
:101A8000D1F7C80ED91EEA1EFB1EBB27AF2D9E2D17
:101A90008D2DC80ED91EEA1EFB1EC701AA27BB2723
:101AA000C80ED91EEA1EFB1EA3E0B0E0A7019601F6
:101AB0000E946519A5019401261B370B480B590B91
:101AC000ABE0B0E00E946519DC01CB0165E0B695A2
:101AD000A795979587956A95D1F7BC01CD016C0DB7
:101AE0007D1D8E1D9F1DFF90EF90DF90CF90BF90CA
:101AF000AF909F908F9008950E94EA1B1F920F92C3
:101B00000FB60F9211242F933F934F935F936F93D0
:101B10007F938F939F93AF93BF93EF93FF9385E052
:101B200095E00E94580CFF91EF91BF91AF919F916A
:101B30008F917F916F915F914F913F912F910F9076
:101B40000FBE0F901F9018951F920F920FB60F9215
:101B500011242F938F939F93EF93FF93E09115059B
:101B6000F09116058081E0911B05F0911C0582FD26
:101B700012C0908180911E058F5F8F7320911F0589
:101B8000821751F0E0911E05F0E0EB5FFA4F958F60
:101B900080931E0501C08081FF91EF919F918F91ED
:101BA0002F910F900FBE0F901F90189590E0FC01A1
:101BB000E153FE4F2491FC01EF54FE4F3491FC01A0
:101BC000E356FE4FE491EE2309F43CC0222339F1A1
:101BD000233091F038F42130A9F0223001F584B59A
:101BE0008F7D12C0273091F02830A1F02430B9F455
:101BF000809180008F7D03C0809180008F778093DB
:101C000080000DC084B58F7784BD09C08091B0007D
:101C10008F7703C08091B0008F7D8093B000F0E09B
:101C2000EE0FFF1FED56FE4FA591B4919FB7F894AC
:101C3000611104C08C913095382302C0EC913E2B89
:101C40003C939FBF0895CF93DF9390E0FC01EF5446
:101C5000FE4F2491FC01E356FE4F8491882361F1ED
:101C600090E0880F991FFC01EB53FE4FC591D49172
:101C7000FC01ED56FE4FA591B491611109C09FB7CB
:101C8000F8948881209582238883EC912E230BC0C1
:101C9000623061F49FB7F8948881322F30958323A6
:101CA0008883EC912E2B2C939FBF06C08FB7F8949E
:101CB000E8812E2B28838FBFDF91CF9108958F92DB
:101CC0009F92AF92BF92CF92DF92EF92FF926B0101
:101CD0007C010E94F30C4B015C01C114D104E104AE
:101CE000F104F1F00E94F30CDC01CB018819990991
:101CF000AA09BB09883E9340A105B10570F321E014
:101D0000C21AD108E108F10888EE880E83E0981E17
:101D1000A11CB11CC114D104E104F10419F7DDCFF9
:101D2000FF90EF90DF90CF90BF90AF909F908F90FB
:101D300008951F920F920FB60F9211242F933F9385
:101D40008F939F93AF93BF9380910E0490910F0454
:101D5000A0911004B09111043091510623E0230F9B
:101D60002D3720F40196A11DB11D05C026E8230FD3
:101D70000296A11DB11D2093510680930E049093ED
:101D80000F04A0931004B093110480915206909117
:101D90005306A0915406B09155060196A11DB11DA0
:101DA0008093520690935306A0935406B093550621
:101DB000BF91AF919F918F913F912F910F900FBE47
:101DC0000F901F901895CF92DF92EF92FF920F9392
:101DD0001F93CF93DF93FC01EB01142F83A9811193
:101DE00008C0188219821A821B8214AA85A98260EF
:101DF00085AB1E3281F01C3209F07EC084A9882395
:101E000051F084A9843091F5288139814A815B8120
:101E1000A4E6B0E045C081E084AB4981842F82957F
:101E20008F704F702AE0829F400D11248A818111AA
:101E30004C598881982F92959F708F702AE0929FBD
:101E4000800D11249CE3499FA0011124480F511DCE
:101E5000052E000C660B770B488359836A837B83BE
:101E60001E3209F4ACC01C3261F246C0853039F430
:101E7000288139814A815B81AAE0B0E011C08630B7
:101E8000F1F008F09EC0288139814A815B8183305E
:101E900019F4A8EEB3E004C0823029F4A0E1B7E25F
:101EA0000E94651908C0813051F460EA76E881E04B
:101EB00090E00E943319688379838A839B83C8806A
:101EC000D980EA80FB80D701C601880F991FAA1F1D
:101ED000BB1FBC01CD016F5F7F4F8F4F9F4F0E9493
:101EE000180DDC01CB018C0D9D1DAE1DBF1D88831F
:101EF0009983AA83BB8365C084A981111BC0888193
:101F00009981AA81BB816C017D0134E0CC0CDD1C80
:101F1000EE1CFF1C3A95D1F7612F110F770BCB0107
:101F2000C097092E000CAA0BBB0B8C299D29AE294A
:101F3000BF2941C08F5F84AB8730C0F428813981CD
:101F40004A815B81AAE0B0E00E946519212F110F40
:101F5000330B205331098901330F220B330BDC0182
:101F6000CB01800F911FA21FB31F25C0873039F509
:101F7000C880D980EA80FB80D701C601880F991FED
:101F8000AA1FBB1FBC01CD016F5F7F4F8F4F9F4FBB
:101F90000E94180DDC01CB018C0D9D1DAE1DBF1DD7
:101FA000193324F00296A11DB11D05C014331CF095
:101FB0000196A11DB11D88839983AA83BB8380E00C
:101FC00001C081E0DF91CF911F910F91FF90EF90C1
:101FD000DF90CF900895FC01DB0183A9811117C028
:101FE00011961C921E9213961C921E92129785A90E
:101FF000826085AB14AA91E04D3209F090E085A98A
:1020000090FB80F985AB4D3209F073C06EC04C3245
:10201000B9F584A9811102C081E084AB12968D913B
:102020009C911397892BA9F03AE084A991E0980F2D
:1020300094AB281770F012964D915C911397349FD2
:10204000C001359F900D112413969C938E93129787
:10205000ECCF85A980FF4BC012968D919C91139770
:1020600091958195910913969C938E9312978D91DA
:102070009C9111979195819591098D939C9337C06F
:102080004E3219F481E084AB30C084A9811113C0B1
:102090002D913C9111975AE0529FC001539F900D92
:1020A0001124042E000C550B40535109480F591FA1
:1020B0004D935C931AC091E0980F94AB2817A8F049
:1020C00012962D913C9113975AE0529FC001539F55
:1020D000900D1124042E000C550B40535109480F4C
:1020E000591F13965C934E93129780E0089581E0F8
:1020F00008954C3209F490CF4E3251F6C3CF0F936E
:102100001F93DC01D396EC91D3970E2F10E009308A
:10211000110508F05AC0F801EA5BFF4F0C94FD1955
:102120009E961C929E976C3209F44FC0D5968C9166
:10213000D5978260D5968C93D597660F6056862F7B
:10214000880F880F04C099968C9199978053680FD7
:1021500099966C933AC0660F6056862F880F880F49
:1021600004C098968C9198978053680F98966C93BA
:102170002CC0660F6056862F880F880F04C0979674
:102180008C9197978053680F97966C931EC06C3212
:10219000E1F415C06C3299F0660F6056862F880FF7
:1021A000880F680F9E966C9310C06C3241F09E961B
:1021B0008C919E978053680F9E966C939E97D096B5
:1021C0008C91D0978460D0968C9381E01F910F9171
:1021D0000895CF93DF93CDB7DEB7A6970FB6F894E7
:1021E000DEBF0FBECDBF789484B5826084BD84B558
:1021F000816084BD85B5826085BD85B5816085BD02
:1022000080916E00816080936E00109281008091B9
:102210008100826080938100809181008160809341
:102220008100809180008160809380008091B10066
:1022300084608093B1008091B00081608093B00091
:1022400080917A00846080937A0080917A00826025
:1022500080937A0080917A00816080937A008091E7
:102260007A00806880937A001092C10068EB7BE06E
:1022700080E090E00E945F0E10924D0610924C0696
:1022800010924B0610924A06109249061092480688
:102290008FE190E090934F0680934E0690913E061A
:1022A000963108F058C021E030E030934906209381
:1022B00048062DE130E030934B0620934A062DE08E
:1022C00030E030934D0620934C06409168009830E2
:1022D00058F031E09E3008F430E021E0822F01C058
:1022E000880F3A95EAF701C084E0842B8093680058
:1022F000983038F09E3040F0963148F42CE630E0CB
:1023000008C02DE630E005C02BE630E002C020E03A
:1023100030E03093460620934506983030F481E053
:1023200001C0880F9A95EAF70EC0292F30E09E3041
:1023300018F42850310902C02E50310981E001C043
:10234000880F2A95EAF78093470680914E06909170
:102350004F060197F1F780914C0690914D06892B1D
:1023600049F1E0910204F091030426E0E233F20720
:1023700009F1309739F0A389B4899C9185898095BA
:1023800089238C93809150068E7F80935006109203
:1023900001041092000482E396E09093030480937A
:1023A0000204E0914506F09146069081809147062F
:1023B000892B808310926F001092800081E88093B7
:1023C000810083E896E090930D0480930C048BE3E6
:1023D0009CE390930B0480930A0462E088E00E94DF
:1023E000230E61E089E00E94D60D61E089E00E9441
:1023F000230E109209041092080410920704109200
:102400000604109205041092040480E286BB8093B7
:102410006F00E0911505F091160582E08083E09150
:102420001105F09112051082E0911305F091140549
:102430008FEC808310921D05E0911905F0911A052B
:1024400086E08083E0911705F09118058081806116
:102450008083E0911705F091180580818860808362
:10246000E0911705F0911805808180688083E091E4
:102470001705F091180580818F7D808361E08CE0E5
:102480000E94230E60E08CE00E94D60D68EE73E09F
:1024900080E090E00E945F0E8FE692E00E94040BC5
:1024A0009FE1C92E92E0D92E07E012E02FE1422EE3
:1024B00022E0522E3E0149E0640E711C35E0232ECD
:1024C00033243394F6018080F801E080F18085E0C8
:1024D00095E00E94C70C6FEF85E095E00E947A0CB2
:1024E000FFEF29E648E1F15020404040E1F700C00D
:1024F00000005701912CC5018E199F098815990577
:1025000044F4F50161915F0185E095E00E947A0C49
:10251000F2CF8FB7F89480900E0490900F04A090A3
:102520001004B09011048FBFF5EBF98322E62A83E3
:102530002B823C8242E04D831E82F70182818F8391
:102540008381888719861A86FE0133969191898541
:10255000890F89879A85890F8A87E615F705B1F76C
:10256000F12CF9E0FF1560F12FB7F89480910E047B
:1025700090910F04A0911004B09111042FBF8819FD
:102580009909AA09BB09893B9B40A105B10508F03F
:1025900099CF85E095E00E94420C892B11F385E0EC
:1025A00095E00E94200CE1E0F0E0EC0FFD1FEF0D44
:1025B000F11D9081981711F0F12CD6CFF394D1CF63
:1025C0004FEFC41AD40A0E5F1F4F4016510609F090
:1025D00079CF84E892E00E94040B64EF71E080E020
:1025E00090E00E945F0E80EA92E00E94040B0E943D
:1025F000DA0980E190E00E94031A8C0185EAF80173
:102600008083818381E08283138214828583168292
:1026100087831086118612861386848780E48587D7
:1026200089E086878787980140E161E081E00E9428
:10263000AC0AC8010E949B1A1EA218A21A82198213
:10264000AE014F5F5F4FBE01605E7F4FCE01869649
:102650000E94510A8EA1813079F488A1813861F4F9
:10266000E981FA81108185EB92E00E941F0A812F97
:102670000E94C3070E94DA0989819A810E949B1AED
:1026800068EE73E080E090E00E945F0E20E030E0B2
:1026900040E062E081E00E94AC0A1EA218A21A8209
:1026A0001982AE014F5F5F4FBE01605E7F4FCE016A
:1026B00086960E94510A97FF03C08DEB92E01CC0E2
:1026C0000E94DA0983EC92E00E941F0A8EA10E9408
:1026D000C3070E94DA098FEC92E00E941F0A88A1CA
:1026E0000E94C3070E94DA098EA1813019F488A1E3
:1026F000823849F089ED92E00E94040B89819A8129
:102700000E949B1A6EC0E981FA81C080D180DC24CE
:10271000CD24DC24728083809480A580E680F780BD
:10272000FE24EF24FE24818580931204B58406855F
:10273000178510270127102782EE92E00E941F0ABA
:10274000C6010E949D070E94DA0989EE92E00E946C
:102750001F0A872D0E94C3070E94DA0983EF92E0C7
:102760000E941F0A882D0E94C3070E94DA098DEF7C
:1027700092E00E941F0A892D0E94C3070E94DA0975
:1027800086E093E00E941F0A8A2D0E94C3070E94E0
:10279000DA098FE093E00E941F0AC7010E949D079B
:1027A0000E94DA0987E193E00E941F0A80911204D7
:1027B00090E00E949D070E94DA0980E293E00E9467
:1027C0001F0A8B2D0E94C3070E94DA098FE293E053
:1027D0000E941F0AC8010E949D070E94DA090E94F8
:1027E000DA098CE291E00E94A90B8AE091E00E9454
:1027F000A90B8FEF90E00E94A90B8AEE90E00E9457
:10280000A90B87ED90E00E948E0B4AE06FE170E02B
:1028100080E090E00E94DE090E94DA0980EC90E0FE
:102820000E948E0B4AE069E570E080E090E00E9433
:10283000DE090E94DA098EE990E00E94A90B85E08A
:1028400095E00E94C70C8824839487E0682E712C41
:1028500089E393E00E94040B85E493E00E94040B5B
:1028600040E050E061E084E494E40E94100B809129
:102870000405811161C380E693E00E94040B61E0CE
:102880008CE00E94D60D8FB7F894C0900E04D090C3
:102890000F04E0901004F09011048FBF2FB7F8944C
:1028A00080910E0490910F04A0911004B091110436
:1028B0002FBF8C199D09AE09BF0980319742A10530
:1028C000B10508F0E0C086E296E00E942B01892B5A
:1028D00009F4A9C086E296E00E944D01682F8DECB4
:1028E00095E00E940802029771F7809123068823E1
:1028F00061F080910206886080930206109224069F
:10290000809123068150809323068091FD0580FFEE
:102910000CC0209122069091FC0520FF04C020915C
:102920002106291710F49093210681FF0CC0909185
:10293000F80590931D069091F90590931E069091CD
:10294000FA0590931F0682FF10C09091F6059093B0
:102950001B069091F50590931A069091F4059093BB
:1029600019069091FB059093200683FF09C088E02B
:10297000EFEDF5E0A4E0B6E001900D928A95E1F765
:102980008091FD0584FF10C04091E7055091E80556
:102990006091E9057091EA0540930C0650930D068D
:1029A00060930E0670930F0686FF10C04091EF05EE
:1029B0005091F0056091F1057091F2054093140675
:1029C00050931506609316067093170685FF10C086
:1029D0004091EB055091EC056091ED057091EE058D
:1029E00040931006509311066093120670931306DD
:1029F00087FF04C08091F305809318069091FD0530
:102A000080912206892B809322068091020684FF02
:102A10005ACF1092250680912306811154CF21E0D0
:102A20002093230650CF80912306882309F436CFC4
:102A3000CE0101960E94D008809123068823C9F018
:102A4000815080932306809124064FE1489FC00166
:102A50001124FC01EC5FF94FDE0111962FE101908A
:102A60000D922A95E1F78C5F994F0E94D008109241
:102A700024068FE1FE013196AEEAB5E001900D9299
:102A80008A95E1F720CF60E08CE00E94D60D8CE6BD
:102A900093E00E94040B8AE793E00E941F0A809152
:102AA000CC0582FB882780F990E00E94210A83E808
:102AB00093E00E941F0A83EC95E00E943D051B01F4
:102AC0002C0180912204811102C080922204409145
:102AD0001E0450911F046091200470912104809184
:102AE000C905452B462B472B29F090911D049817BB
:102AF00009F453C080931D0483E080931C048EE08E
:102B000080931B0482E080931904109218041092A1
:102B1000170487E194E00E9400050696B3010E9425
:102B2000B61991E0980F90931A0480911B048F5F5F
:102B3000891B80931B0487E194E00E943D0560930C
:102B40001E0470931F0480932004909321048BE053
:102B500080931C0487E080931B048092190487E112
:102B600094E00E9400050696B3010E94B61991E018
:102B7000980F90931A0480911B048F5F891B809398
:102B80001B0487E194E00E943D0560931304709359
:102B9000140480931504909316047201610150E5AA
:102BA000C51A56E4D50AE108F10880911E049091F7
:102BB0001F04A0912004B0912104C816D906EA068A
:102BC000FB06A8F08091130490911404A0911504C1
:102BD000B0911604C816D906EA06FB0640F4720145
:102BE000610180E4C81A88E3D80AE108F108C70146
:102BF000B60120E831E541E050E00E944319590157
:102C000060E871E581E090E00E943319C61AD70AA6
:102C1000E80AF90AC9010696B3010E94B6194424CC
:102C20004394480E00ED17E0C8010E94E504282FE8
:102C300030E023593E4FA216B30628F0A21AB30A79
:102C40000F5F1F4FF1CF005D17400536110518F0DB
:102C500004561109FACF502E99249394E92DF0E0EF
:102C6000EA5BFE4FE491882321F092E0991201C0C3
:102C7000EF5FF0E091E0990DAE16BF0620F0AE1ABE
:102C8000BF0A992EEBCFC701B60120E13EE040E03C
:102C900050E00E944319E0E1FEE02E9FC0012F9F0B
:102CA000900D1124C81AD90AC6016CE370E00E9485
:102CB000B619FCE36F9FC0181124C092C30560933E
:102CC000C4052093C5054092C605A394A092C705EC
:102CD0009092C8055092C905B8016053784F80E0C2
:102CE00090E04AE00E94DE096DE285E095E00E94F6
:102CF0007A0C8091C8058A3028F460E385E095E07D
:102D00000E947A0C6091C80570E080E090E04AE093
:102D10000E94DE096DE285E095E00E947A0C8091C8
:102D2000C7058A3028F460E385E095E00E947A0CBC
:102D30006091C70570E080E090E04AE00E94DE0903
:102D400060E285E095E00E947A0C8091C5058A30AA
:102D500028F460E385E095E00E947A0C6091C50557
:102D600070E080E090E04AE00E94DE096AE385E0DE
:102D700095E00E947A0C8091C4058A3028F460E3C3
:102D800085E095E00E947A0C6091C40570E080E0D7
:102D900090E04AE00E94DE096AE385E095E00E9447
:102DA0007A0C8091C3058A3028F460E385E095E0D1
:102DB0000E947A0C6091C30570E080E090E04AE0E8
:102DC0000E94DE090E94DA098BE893E00E941F0A44
:102DD0008091CC0583FB882780F990E00E94210A2E
:102DE00083E893E00E941F0A4091AE055091AF0521
:102DF0006091B0057091B105CE0180960E94D70711
:102E00004CA15DA168A179A185E095E00E94F5083B
:102E100088A199A10E949B1A6CE285E095E00E942E
:102E20007A0C4091B2055091B3056091B405709150
:102E3000B505CE0180960E94D7074CA15DA168A17F
:102E400079A185E095E00E94F50888A199A10E94EA
:102E50009B1A0E94DA0988E993E00E941F0A809178
:102E6000CC0587FB882780F990E00E94210A83E83F
:102E700093E00E941F0A6091C20570E080E090E03C
:102E80004AE00E94DE090E94DA090E94DA0964EF32
:102E900071E080E090E00E945F0E89EA93E00E947A
:102EA000040B86E090E00E94031A8C0186E090E01B
:102EB0000E94031A7C018091CC0583FF11C06091B0
:102EC000AE057091AF058091B0059091B105A090CD
:102ED000B205B090B305C090B405D090B50506C05A
:102EE000A12CB12C650160E070E0CB01A8010E942B
:102EF0005308A701C601B5010E945308D8011696D0
:102F000086E0F70101900D928A95E1F7A8016CE047
:102F100084E494E40E94100BC8010E949B1AC7012C
:102F20000E949B1A86EB93E00E94040B64E670E01B
:102F300080E090E00E945F0E80EC93E00E94040B22
:102F40000E94DA0968EE73E080E090E00E945F0E74
:102F50008FEC93E00E94040B64EF71E080E090E05E
:102F60000E945F0E0E94E90C73CC8091A2059091A3
:102F7000A3050E949B1A8091A8059091A9050E9423
:102F80009B1A8FE492E09093270680932606809107
:102F90006F008B7F80936F0080916F008F7D809397
:102FA0006F008091070480930804809106048111CA
:102FB000FCCF80916F008D7F80936F0081E692E05F
:102FC000909333068093320680910204909103041B
:102FD0008253964071F4E0914506F0914606908147
:102FE0008091470680958923808310920304109274
:102FF00002040895109208051092070588EE93E0E8
:10300000A0E0B0E08093090590930A05A0930B051A
:10301000B0930C052FE232E03093060520930505AE
:1030200025EC30E0309312052093110524EC30E0BC
:10303000309314052093130520EC30E030931605EF
:103040002093150521EC30E03093180520931705E7
:1030500022EC30E030931A052093190526EC30E07D
:1030600030931C0520931B0510921E0510921F051E
:103070001092200510922105109235061092340608
:103080008093360690933706A0933806B09339069E
:1030900081E692E0909333068093320610924906BF
:1030A0001092480610924B0610924A0610924D0656
:1030B00010924C0610924F0610924E0660915006E8
:1030C0006E7F6D7F609350066695617081E0682722
:1030D00083E00E94D60D61E083E00E94230EE4EBC2
:1030E000F1E0E491E0934206E0EAF1E0E491F0E0FF
:1030F000EE0FFF1FED56FE4F85919491909344067D
:103100008093430660E082E00E94230E8091500687
:1031100081FD04C061E082E00E94D60D82E08093D0
:103120003E06E3EBF1E0E491E0933F06EFE9F1E0E6
:10313000E491F0E0EE0FFF1FE757FE4F8591949169
:10314000909341068093400610922906109228061B
:1031500088EE93E0A0E0B0E080932A0690932B06DF
:10316000A0932C06B0932D068FE492E0909327064F
:103170008093260681E492E09093CE058093CD055E
:103180008FED95E00E94D00884E096E00E94D00880
:103190001092D3051092D4051092D5051092D60541
:1031A0001092D7051092D8051092D9051092DA0521
:1031B0001092DB051092DC051092DD051092DE0501
:1031C0008FED95E00E94D008109203068EEA95E0FC
:1031D0000E94D00888EA95E00E94B10982EA95E051
:1031E0000C94B109BB272A3051F4992342F4BDE273
:1031F00090958095709561957F4F8F4F9F4F0C9460
:103200000219BB27FA01A62F6217710581059105E6
:10321000330B30FB66F0AA27660F771F881F991FB4
:10322000AA1FA21710F0A21B63953850A9F7A05D42
:10323000AA3308F0A95DA19336F7B111B1931082BA
:10324000CA010C942319DC01FC01672F71917723CB
:10325000E1F7329704C07C916D9370836291AE1751
:10326000BF07C8F30895DB018F939F930E946519F0
:10327000BF91AF91A29F800D911DA39F900DB29F12
:10328000900D11240895A1E21A2EAA1BBB1BFD016B
:103290000DC0AA1FBB1FEE1FFF1FA217B307E40735
:1032A000F50720F0A21BB30BE40BF50B661F771F8D
:1032B000881F991F1A9469F760957095809590956D
:1032C0009B01AC01BD01CF0108950E94A719A59FE4
:1032D000900DB49F900DA49F800D911D1124089511
:1032E0002F923F924F925F926F927F928F929F9216
:1032F000AF92BF92CF92DF92EF92FF920F931F9304
:10330000CF93DF93CDB7DEB7CA1BDB0B0FB6F894B4
:10331000DEBF0FBECDBF09942A88398848885F84F4
:103320006E847D848C849B84AA84B984C884DF8065
:10333000EE80FD800C811B81AA81B981CE0FD11D49
:103340000FB6F894DEBF0FBECDBFED010895A29F6A
:10335000B001B39FC001A39F700D811D1124911D69
:10336000B29F700D811D1124911D0895AA1BBB1BD6
:1033700051E107C0AA1FBB1FA617B70710F0A61B75
:10338000B70B881F991F5A95A9F780959095BC0196
:10339000CD01089597FB072E16F4009407D077FD12
:1033A00009D00E94B61907FC05D03EF4909581958E
:1033B0009F4F0895709561957F4F0895052E97FB57
:1033C0001EF400940E94F51957FD07D00E9443197E
:1033D00007FC03D04EF40C94F519509540953095A8
:1033E00021953F4F4F4F5F4F089590958095709571
:1033F00061957F4F8F4F9F4F0895EE0FFF1F0590F0
:10340000F491E02D09940F931F93CF93DF938230B3
:10341000910510F482E090E0E0915806F091590691
:1034200020E030E0A0E0B0E0309719F14081518118
:103430000281138148175907C8F08417950769F46A
:10344000109731F012960C93129713961C9327C085
:10345000009358061093590622C02115310519F022
:103460004217530718F49A01BD01EF01DF01F8017B
:10347000DBCF21153105F9F0281B390B243031053C
:1034800080F48A819B816115710521F0FB01938392
:10349000828304C09093590680935806FE013296A9
:1034A00044C0FE01E20FF31F819391932250310932
:1034B000398328833AC02091560630915706232B32
:1034C00041F4209103023091040230935706209377
:1034D000560620910102309102022115310541F476
:1034E0002DB73EB74091050250910602241B350BC3
:1034F000E0915606F0915706E217F307A0F42E1B51
:103500003F0B2817390778F0AC014E5F5F4F241747
:10351000350748F04E0F5F1F5093570640935606ED
:103520008193919302C0E0E0F0E0CF01DF91CF9171
:103530001F910F910895CF93DF93009709F481C0F5
:10354000FC01329713821282A0915806B09159065D
:10355000109781F420813181820F931F20915606AC
:10356000309157062817390751F5F0935706E09325
:10357000560667C0ED0120E030E0CE17DF0740F4CB
:103580004A815B819E0141155105F1F0EA01F5CFB9
:10359000D383C28340815181840F951FC817D907F7
:1035A00059F488819981840F951F029691838083B5
:1035B0008A819B81938382832115310529F4F093BD
:1035C0005906E09358063DC0E901FB83EA8349911F
:1035D0005991C40FD51FEC17FD0761F480819181CB
:1035E000840F951F0296E9019983888382819381D4
:1035F0009B838A83E0E0F0E012968D919C91139773
:10360000009719F0FD01DC01F7CF8D919C91119786
:103610009D012E5F3F4F820F931F209156063091E0
:1036200057062817390769F4309729F4109259067C
:103630001092580602C013821282B0935706A093CC
:103640005606DF91CF910895A0E0B0E0EAE2FBE1F9
:103650000C947419EC01009721F4CB010E94031A19
:10366000B4C0FC01E60FF71F9C0122503109E2179C
:10367000F30708F4A8C0D9010D911C911197061702
:103680001707B0F00530110508F49BC0C801049776
:103690008617970708F495C002501109061B170BEF
:1036A000019311936D937C93CF010E949B1A89C063
:1036B0005B01A01AB10A4C01800E911EA091580620
:1036C000B0915906612C712CE12CF12C109709F462
:1036D00046C08D919C911197A815B905B1F56C0163
:1036E00042E0C40ED11CCA14DB0478F14C018A18E4
:1036F0009B08640142E0C40ED11C1296BC90129744
:103700001396AC91B5E0CB16D10440F0B282A383FE
:1037100091828082D9016D937C9309C00E5F1F4F07
:10372000800F911FF90191838083EB2DFA2FE11413
:10373000F10431F0D7011396FC93EE93129741C038
:10374000F0935906E09358063CC06816790608F4D1
:103750003C017D0112960D90BC91A02DB7CF8091B8
:1037600056069091570688169906E1F46616770674
:10377000C8F48091010290910202009741F48DB744
:103780009EB74091050250910602841B950BE817E5
:10379000F907C8F4F0935706E0935606F9017183D0
:1037A00060830FC0CB010E94031A7C01009759F07F
:1037B000A801BE010E94EF1BCE010E949B1AC70107
:1037C00004C0CE0102C080E090E0CDB7DEB7EEE0ED
:1037D0000C94901981E090E0F8940C94FF1BFB018D
:1037E000DC0102C001900D9241505040D8F708957D
:1037F000FB01DC0101900D920020E1F7089510E03B
:10380000C3EFD0E004C0FE010E94FD192196C43F21
:08381000D107C9F7F894FFCFBE
:10381800B56206090D0000000000FFFF000000006F
:103828000000031DABB56206160800010303000083
:10383800E804001779B5620623280000004C66C02A
:10384800000000000003160700000000019B0600AE
:1038580000000000000001000064000000000000FB
:10386800000000EAF7B56206242400FFFF03030006
:10387800000000102700000500FA00FA0064002C80
:1038880001003C0000000000000000000000004FA4
:1038980082B562060108000103000100000000145F
:1038A800C5B5620601080001060001000000001706
:1038B800DAB56206010800010400010000000015E5
:1038C800CCB5620601080001310001000000004289
:1038D80007B56206010800016000010000000071E0
:1038E80050B562060108000A080001000000002225
:1038F80030B562060108000A090001000000002333
:1039080037B562060108000B010001000000001C29
:103918000700005A068000F101E101D101C101B19F
:1039280001A1019101810155012501150100011035
:10393800101010101010102C301015000000007A14
:103948000CF508110CC70C420C200C340C000000BC
:10395800000802280126011E01CA03000000008D8C
:1039680003F508C70388032B014D013A0100000045
:10397800007C01F508C7037B01CC01E40163014326
:103988006F6E66696775726174696E672047505318
:103998002E2E2E004750532073756363657373662C
:1039A800756C6C7920636F6E666967757265640003
:1039B800436F6E66696775726174696F6E205365CF
:1039C8007475703A007374617475733D0045525292
:1039D8004F52004672616D6554797065203D004311
:1039E8006D6454797065203D00424144205459501B
:1039F8004500666C6167203D006368616E6E656CAA
:103A0800203D007478506F776572203D0075694DD0
:103A18006F6465203D00657154797065203D006EC6
:103A280065744964203D006E6F64654964203D00FB
:103A3800736572506F7274506172616D203D0061E0
:103A4800697252617465203D005374617274696EC5
:103A5800672E2E2E0053656E64696E672044756D5F
:103A68006D79205472616E736D697373696F6E003E
:103A780052756E6E696E6720475053004750532049
:103A8800446174613A202020200054696D653A2011
:103A98002020002020202C202020004C61742F4C56
:103AA8006F6E3A2020202000232053567320557330
:103AB80065643A20202020200053656E64696E6793
:103AC800204461746100446174612053656E740020
:103AD800476F696E6720746F20536C656570005777
:103AE800616B696E672055700030780030000D0AF0
:103AF800005061796C6F61643A0074617267657433
:103B080041646472203D00737461747573203D00D4
:00000001FF
