:100000000C94A1020C94F31B0C94CC1B0C94C316FF
:100010000C949E160C9479160C94E8160C94C90254
:100020000C94C9020C94C9020C94C9020C94C31319
:100030000C94C9020C94C9020C94C9020C94C90214
:100040000C94821B0C94C9020C9431190C940B195A
:100050000C94C9020C94C9020C94C9020C94C902F4
:100060000C94C9020C94C90248045B04630469043B
:10007000710477047F0482048D041B072007A70600
:10008000C8063A07E306EC061B07E3062007A706A7
:10009000C8063A07AF07AF0765075A4441005654F0
:1000A0004700524D430047535600475354004753AF
:1000B0004100474C4C0047474100B600B200AE003B
:1000C000AA00A600A2009E009A002020202C20203A
:1000D000200056616C69643A20202000232053568A
:1000E0007320557365643A00202C20002020207C6A
:1000F0002020200056616C69643A202020004C6169
:10010000742F4C6F6E3A002020207C202020005657
:10011000616C69643A2020200054696D652028557F
:100120005443202D205365636F6E64733A20202062
:10013000002020207C2020200056616C69643A2039
:1001400020200054696D653A20202000001F1C1FEC
:100150001E1F1E1F1F1E1F1E1F01000008BA004E7B
:100160006F6465204944207365742053756363652B
:10017000737366756C6C79004E6F6465204944201A
:10018000736574204661696C7572650052656164BF
:10019000206E6F646549643A2000536574206E6F69
:1001A00064654964203D200053657474696E67205E
:1001B0006E6F646549642E2E2E004661696C65641D
:1001C000005375636365737366756C6C7920636F38
:1001D0006E666967757265643A2000436F6E666982
:1001E000677572696E67204750532E2E2E004D653D
:1001F0006D6F727920417661696C61626C65203D3A
:1002000020004C6F6F6B696E6720666F72204750DD
:100210005320646576696365206F6E206770735044
:100220006F7274004E4D4541475053206F626A65AE
:1002300063742073697A65203D2000666978206FB9
:10024000626A6563742073697A65203D20004E4DB3
:1002500045416C6F632E494E4F3A2073746172743E
:100260006564004C6F63616C2074696D650A004CB5
:100270006F6F6B696E6720666F7220475053206402
:100280006576696365206F6E20677073506F727456
:10029000004E4D454174696D657A6F6E652E494E0D
:1002A0004F3A2073746172746564004D656D6F72AE
:1002B0007920417661696C61626C65203D20005255
:1002C00046393520696E6974204661696C65640A37
:1002D00000524639352072656164790A004D6573B4
:1002E00073616765204944206D617463682026202E
:1002F00041434B203D2031004D657373616765209C
:100300004944206D6174636820262041434B203DA1
:100310002030004F7574206F66204C6F6F70005353
:10032000454E54005254432054696D652056616C0B
:100330006964005254432054696D65206E6F7420C7
:1003400056616C6964206F7220417661696C6162EC
:100350006C652E205573696E672044656661756C07
:100360007420536C6565702074696D650044617418
:10037000613A2020200047505320446174613A20A4
:100380002020200052554E54494D453A202020202F
:10039000200052756E6E696E67204750530053748B
:1003A000617274696E672E2E2E00B56206090D000B
:1003B00000000000FFFF000000000000031DABB5BF
:1003C00062061608000103030000E804001779B56F
:1003D000620623280000004C66C0000000000003F5
:1003E000160700000000019B06000000000000004E
:1003F00001000064000000000000000000EAF7B502
:100400006206242400FFFF03030000000010270001
:10041000000500FA00FA0064002C01003C00000016
:100420000000000000000000004F82B562060108D5
:1004300000010300010000000014C5B562060108B8
:1004400000010600010000000017DAB5620601088D
:1004500000010400010000000015CCB5620601088F
:100460000001310001000000004207B562060108EA
:100470000001600001000000007150B56206010833
:10048000000A080001000000002230B562060108E1
:10049000000A090001000000002337B562060108C8
:1004A000000B010001000000001C07436F72726521
:1004B0006374656420536C6565702054696D653A9A
:1004C0002020200054617267657420536C6565704C
:1004D0002054696D653A20202000000000002500AE
:1004E00028002B000000000023002600290004043F
:1004F00004040404040402020202020203030303CC
:1005000003030102040810204080010204081020A7
:100510000102040810207274049274044894047850
:10052000C40C00000000240027002A00000000087E
:1005300000020100000304070000000000000000AA
:10054000442211241FBECFEFD8E0DEBFCDBF12E0A2
:10055000A0E0B1E0EEE2F7E502C005900D92A43B09
:10056000B107D9F726E0A4EBB2E001C01D92A6378F
:10057000B207E1F712E0C1EAD2E004C02197FE0120
:100580000E94DE27C03AD107C9F70E941A1C0C94BA
:10059000952B0C9400008F929F92AF92BF92CF92B6
:1005A000DF92EF92FF924B015C016B017C0182E0D4
:1005B000F694E794D794C7948A95D1F7D501C401EE
:1005C00024E0B695A795979587952A95D1F7C80EFB
:1005D000D91EEA1EFB1ED701C60134E0B695A795C9
:1005E000979587953A95D1F7C80ED91EEA1EFB1E3E
:1005F000BB27AF2D9E2D8D2DC80ED91EEA1EFB1ECA
:10060000C701AA27BB27C80ED91EEA1EFB1EA3E0FE
:10061000B0E0A70196010E94B526A5019401261B12
:10062000370B480B590BABE0B0E00E94B526DC015C
:10063000CB0165E0B695A795979587956A95D1F713
:10064000BC01CD016C0D7D1D8E1D9F1DFF90EF9097
:10065000DF90CF90BF90AF909F908F900895CF92F2
:10066000DF92EF92FF920F931F93CF93DF93FC01E2
:10067000EB01142F87A1811108C0188219821A82F8
:100680001B8210A681A5826081A71E3281F01C32D8
:1006900009F07EC080A5882351F080A5843091F5B3
:1006A000288139814A815B81A4E6B0E045C081E0C0
:1006B00080A74981842F82958F704F702AE0829F96
:1006C000400D11248A8181114C598881982F92956F
:1006D0009F708F702AE0929F800D11249CE3499FA8
:1006E000A0011124480F511D052E000C660B770B3D
:1006F000488359836A837B831E3209F4ACC01C3261
:1007000061F246C0853039F4288139814A815B81A4
:10071000AAE0B0E011C08630F1F008F09EC0288158
:1007200039814A815B81833019F4A8EEB3E004C0BB
:10073000823029F4A0E1B7E20E94B52608C08130DA
:1007400051F460EA76E881E090E00E9464266883D4
:1007500079838A839B83C880D980EA80FB80D70114
:10076000C601880F991FAA1FBB1FBC01CD016F5F77
:100770007F4F8F4F9F4F0E94CB02DC01CB018C0D2E
:100780009D1DAE1DBF1D88839983AA83BB8365C051
:1007900080A581111BC088819981AA81BB816C01D0
:1007A0007D0134E0CC0CDD1CEE1CFF1C3A95D1F72A
:1007B000612F110F770BCB01C097092E000CAA0BEC
:1007C000BB0B8C299D29AE29BF2941C08F5F80A713
:1007D0008730C0F4288139814A815B81AAE0B0E08A
:1007E0000E94B526212F110F330B205331098901A7
:1007F000330F220B330BDC01CB01800F911FA21FA3
:10080000B31F25C0873039F5C880D980EA80FB80C6
:10081000D701C601880F991FAA1FBB1FBC01CD01BC
:100820006F5F7F4F8F4F9F4F0E94CB02DC01CB0148
:100830008C0D9D1DAE1DBF1D193324F00296A11D08
:10084000B11D05C014331CF00196A11DB11D888394
:100850009983AA83BB8380E001C081E0DF91CF91BF
:100860001F910F91FF90EF90DF90CF9008950F931D
:100870001F93DC019796EC9197970E2F10E00930AB
:10088000110508F05AC0F801EC5CFF4F0C94DE270C
:1008900092961C9292976C3209F44FC099968C9163
:1008A0009997826099968C939997660F6056862FD8
:1008B000880F880F04C05D968C915D978053680FF8
:1008C0005D966C933AC0660F6056862F880F880F2E
:1008D00004C05C968C915C978053680F5C966C9317
:1008E0002CC0660F6056862F880F880F04C05B9659
:1008F0008C915B978053680F5B966C931EC06C3233
:10090000E1F415C06C3299F0660F6056862F880F9F
:10091000880F680F92966C9310C06C3241F09296DB
:100920008C9192978053680F92966C9392979496BD
:100930008C919497846094968C9381E01F910F9191
:10094000089521E0FC018281863009F020E0822FA9
:10095000089581E0089589E591E008959C01237050
:100960003327232BA1F460E971E00E94B6279C0194
:10097000009759F08436910551F0883C910539F083
:1009800081E02C32314021F402C081E0089580E002
:100990000895EF92FF920F931F93CF93DF937C0103
:1009A000FC01C481D0E02197068110E00053184F6C
:1009B000C8010E94AE04F7012581EDE4F1E091E069
:1009C000921758F43491C30FD11D882319F0923037
:1009D00009F421969F5F3196F3CF7801F1E0EF1A89
:1009E000F108003D174051F0C7010E94AE0490E0AD
:1009F00083599E4FC80FD91F8701EFCFCE01DF91DA
:100A0000CF911F910F91FF90EF90089580E090E0BB
:100A10000895FC01108208955F926F927F928F92E9
:100A20009F92AF92BF92CF92DF92EF92FF920F937D
:100A30001F93CF93DF93EC018E859F85A889B98999
:100A40000196A11DB11D8E879F87A88BB98B64323B
:100A500091F489A584FF02C08F7E89A71DA21A8206
:100A600081E08AA71FA289A58D7F8F7D89A71D821E
:100A70001C821B823EC1162F0AA5023061F56A3224
:100A800019F483E08AA71EC080EE860F8F35E0F44C
:100A90008DA186278DA3E881F9810084F185E02D61
:100AA000CE010995811105C0CE0184960E940905E9
:100AB0001EC11C3209F017C189A58D7F89A78EA19F
:100AC0008F5F8EA31FA215C1CE0184960E940905D7
:100AD0001A821AA6EAC0013009F079C08DA18627D2
:100AE0008DA36C3269F48A81882309F400C1CE0198
:100AF00084960E9409050EA31FA282E08AA7F9C06E
:100B00000FA189A5011105C0603519F4806289A77C
:100B1000EAC085FF13C0043078F4FE01E00FF11D38
:100B20001283E881F9810480F581E02D612FCE01E7
:100B300009958111D8C0DBC0045004C0023008F40C
:100B4000D2C00250E881F9810280F381E02DCE010C
:100B500009956A80E62CF12CC02ED12CFC0133962D
:100B60008490FC017490662009F4A2C0671438F1E7
:100B7000282D30E0270D311DE216F30604F5962CE2
:100B8000971897C093949814D0F4FB01E90DF11DC8
:100B9000E90DF11DA591B491A9015D01A21AB30A55
:100BA000E42FE21BE01708F490C09D01F901EC0D61
:100BB000FD1DE4911E1709F494C01E171CF7019641
:100BC000FC0185919491009709F0C8CF90C0033043
:100BD00009F068C010628FE9810F863010F4175554
:100BE00001C010532FA18DA1612F70E021110FC002
:100BF00091E09FA390E024E0959587952A95E1F7F1
:100C0000FF24F39486179707B1F5F12C34C08F7049
:100C100090E0FF24F3948617970709F4F12C8617C8
:100C2000970749F589A581FF0CC08D7F89A72F5FA4
:100C30002FA3E881F9810084F185E02D6CE2CE01DB
:100C400009958E819F81A885B9850196A11DB11D49
:100C50008E839F83A887B987E881F9810680F78111
:100C6000E02DCE01099599A580FB94F999A71AA6C4
:100C700002E010E002C001E010E0FF2009F43BC0F8
:100C80008A859B85AC85BD850196A11DB11D8A878E
:100C90009B87AC87BD87CE0184960E9409051A8286
:100CA0001AA629C0011125C01A8200E010E023C055
:100CB000912CFC01349665917491FB01E90DF11DB5
:100CC000E90DF11D2591349171CFFA015490F50190
:100CD000E40FF51FE4914F5F5F4F5E1609F460CF9C
:100CE00064CF970C9A828FA18F5F8FA302C01A8264
:100CF0001AA601E010E0C801DF91CF911F910F917A
:100D0000FF90EF90DF90CF90BF90AF909F908F902B
:100D10007F906F905F9008950F931F93DC01129660
:100D20008C911297813021F0863009F475C017C17B
:100D30009696EC9196970E2F10E0F8013197E730D8
:100D4000F10508F00CC1E35CFF4F0C94DE27999687
:100D50008C91999782FF03C197968C9197978111F7
:100D6000FEC0633509F0FBC052964D915D916D91C7
:100D70007C91559770956095509541955F4F6F4F59
:100D80007F4F52964D935D936D937C935597E7C03B
:100D90006C3261F497968C919797811107C0999660
:100DA0008C9199978B7F99968C93999799968C9122
:100DB000999782FFD4C0CD014696462FBC01CD0144
:100DC0000E942F03CCC097968C9197978111C7C032
:100DD000CD010E94A80DC3C099968C9199978E7FE2
:100DE00099968C93999797968C919797811105C0B6
:100DF0006C3209F4B4C060530BC06C3209F4A9C062
:100E00005A968C915A9760539AE0899F600D1124ED
:100E10005A966C935A979DC09696EC9196970E2F82
:100E200010E0F8013197E930F10508F098C0EC5B6B
:100E3000FF4F0C94DE27CD011F910F910C943704C6
:100E400097968C919797882341F099968C919997D2
:100E500082FF85C0CD014296B0CF91E06C3209F49B
:100E600090E099968C91999790FB82F999968C9342
:100E70009997EBCF99969C91999792FB882780F947
:100E800092FF6DC097969C919797911168C0949628
:100E90009C919497986094969C939497673509F0E9
:100EA0005EC056964D915D916D917C91599770956C
:100EB0006095509541955F4F6F4F7F4F56964D937C
:100EC0005D936D937C9359974BC097968C919797B0
:100ED000823041F150F48823D1F0813009F03FC0D5
:100EE0005F964C915F97405319C0843049F100F1EF
:100EF0008530A9F591964C9191974053640F919646
:100F00006C93919794968C919497826026C06C32E2
:100F100031F1660F6056462F440F440F640F5F9601
:100F20006C931DC0660F6056462F440F440F04C0DB
:100F300090964C9190974053640F90966C930FC08D
:100F4000660F6056462F440F440F640F91966C93C2
:100F500006C094968C919497806194968C9381E0CE
:100F60001F910F910895CF92DF92EF92FF92CF934E
:100F7000DF93EC010E94C904DC0120E831E541E087
:100F800050E00E94B5266B017C012A81223160F479
:100F900040E15EE0249FC001259F900D1124C80E02
:100FA000D91EE11CF11C09C030E0A0E1BEE00E94A6
:100FB000FF26C60ED71EE81EF91E29818CE3289F46
:100FC000900111246881862F90E0A0E0B0E0820FAC
:100FD000931FA11DB11DBC01CD016C0D7D1D8E1D8A
:100FE0009F1DDF91CF91FF90EF90DF90CF900895FC
:100FF0004F925F926F927F928F929F92AF92BF9229
:10100000CF92DF92EF92FF920F931F93CF93DF93D4
:10101000EC016A017B01198218821B821A821D82EF
:101020001C8260E070E00E946A0F28813981811182
:101030000DC02115310519F0C9010E94B223198292
:1010400018821D821C821B821A8207C01D821C828C
:1010500063EB72E0C9010E94CC28F7FE0CC0F0944B
:10106000E094D094C094C11CD11CE11CF11C6DE231
:10107000CE010E94DF0FC701B60120E836E948E93A
:1010800050E00E94962649015A01BA01A901CE01F9
:101090000E94910F6EE2CE010E94DF0FA501940124
:1010A00060E879E687E69FEF0E946426C60ED71EA9
:1010B000E81EF91E06E010E080EA882E86E8982EE9
:1010C000AA24A394B12C9AE0492E512C612C712CA6
:1010D000C814D904EA04FB0484F40150110969F02E
:1010E00060E3CE010E94DF0FC501B401A3019201AC
:1010F0000E94962649015A01EBCFB701A601CE0105
:101100000E94910FCE01DF91CF911F910F91FF901F
:10111000EF90DF90CF90BF90AF909F908F907F9097
:101120006F905F904F9008954F925F926F927F9271
:101130008F929F92AF92BF92CF92DF92EF92FF92E7
:101140000F931F93CF93DF9300D000D000D0CDB783
:10115000DEB763E471E08CEA93E00E94651169E315
:1011600071E08CEA93E00E940F108091BD0582FF30
:1011700003C062EE71E002C066EE71E08CEA93E0BB
:101180000E94331061E371E08CEA93E00E940F103B
:1011900084EB95E00E94B3074B015C018091C30290
:1011A000811103C081E08093C3024091BF0250913E
:1011B000C0026091C1027091C2028091BA05452BB4
:1011C000462B472B29F09091BE02981709F456C080
:1011D0008093BE0283E08093BD028EE08093BC02C8
:1011E00082E08093BA021092B9021092B80288EBA2
:1011F00092E00E94C904069607E010E0B8010E9440
:10120000B62791E0980F9093BB028091BC028F5F4C
:10121000891B8093BC0288EB92E00E94B307609325
:10122000BF027093C0028093C1029093C2028BE010
:101230008093BD0287E08093BC0281E08093BA0274
:1012400088EB92E00E94C9040696B8010E94B62776
:1012500091E0980F9093BB028091BC028F5F891B35
:101260008093BC0288EB92E00E94B3076093B402C3
:101270007093B5028093B6029093B7027501640132
:1012800080E5C81A86E4D80AE108F1088091BF0217
:101290009091C002A091C102B091C202C816D906B5
:1012A000EA06FB06A8F08091B4029091B502A091E5
:1012B000B602B091B702C816D906EA06FB0640F49A
:1012C0007501640190E4C91A98E3D90AE108F108AC
:1012D000C701B60120E831E541E050E00E947426E4
:1012E000590160E871E581E090E00E946426C61A29
:1012F000D70AE80AF90AC901069667E070E00E9479
:10130000B62788248394880E00ED17E0C8010E9458
:10131000AE04282F30E023593E4FA216B30628F022
:10132000A21AB30A0F5F1F4FF1CF005D17400536B9
:10133000110518F004561109FACF702E99249394D0
:10134000E92DF0E0E45BFE4FE491882321F092E088
:10135000991201C0EF5FF0E091E0990DAE16BF0663
:1013600020F0AE1ABF0A992EEBCFC701B60120E1DB
:101370003EE040E050E00E94742640E15EE0249FA1
:10138000C001259F900D1124C81AD90AC6016CE32B
:1013900070E00E94B6278CE3689FC0181124C092A9
:1013A000B4056093B5052093B6058092B705A39464
:1013B000A092B8059092B9057092BA05A801405361
:1013C000584F60E070E02AE08CEA93E00E944810F9
:1013D0006DE28CEA93E00E94B4178091B9058A30DF
:1013E00028F460E38CEA93E00E94B4176091B90599
:1013F0008CEA93E00E9491106DE28CEA93E00E94E7
:10140000B4178091B8058A3028F460E38CEA93E041
:101410000E94B4176091B8058CEA93E00E94911085
:1014200060E28CEA93E00E94B4178091B6058A309E
:1014300028F460E38CEA93E00E94B4176091B6054B
:101440008CEA93E00E9491106AE38CEA93E00E9498
:10145000B4178091B5058A3028F460E38CEA93E0F4
:101460000E94B4176091B5058CEA93E00E94911038
:101470006AE38CEA93E00E94B4178091B4058A3045
:1014800028F460E38CEA93E00E94B4176091B405FD
:101490008CEA93E00E9491108CEA93E00E949810ED
:1014A00069E171E08CEA93E00E9465116FE071E000
:1014B0008CEA93E00E940F108091BD0582FF03C06B
:1014C00062EE71E002C066EE71E08CEA93E00E9489
:1014D000331067E071E08CEA93E00E940F1084EB18
:1014E00095E00E94B307AB01BC0140585C4B6249D8
:1014F000774C8CEA93E00E949C106EEF70E08CEACF
:1015000093E00E94651164EF70E08CEA93E00E9422
:101510000F108091BD0583FF03C062EE71E002C031
:1015200066EE71E08CEA93E00E9433106CEE70E09E
:101530008CEA93E00E940F104091AB055091AC05EE
:101540006091AD057091AE05CE0101960E94F8073D
:101550004D815E8169817A818CEA93E00E940E0C54
:1015600089819A810E94B22368EE70E08CEA93E050
:101570000E940F104091AF055091B0056091B105E8
:101580007091B205CE0101960E94F8074D815E81EF
:1015900069817A818CEA93E00E940E0C89819A819C
:1015A0000E94B2238CEA93E00E9498106CED70E0E8
:1015B0008CEA93E00E94651162ED70E08CEA93E0A2
:1015C0000E940F108091BD0584FF03C062EE71E0A0
:1015D00002C066EE71E08CEA93E00E9433106AEC80
:1015E00070E08CEA93E00E940F106091B3058CEAE2
:1015F00093E00E9491108CEA93E00E9498108CEA8C
:1016000093E00E94981026960FB6F894DEBF0FBEA6
:10161000CDBFDF91CF911F910F91FF90EF90DF90A1
:10162000CF90BF90AF909F908F907F906F905F9082
:101630004F900895FC011482158216821782108241
:10164000118212821382108612861386118681E01F
:1016500085878687178687E08487108A118ACF015D
:1016600042960C940905CF92DF92EF92FF920F936E
:101670001F93CF93DF93CDB7DEB763970FB6F89480
:10168000DEBF0FBECDBF0E94761B6B017C0113E154
:1016900001E00E94761BDC01CB018C199D09AE098B
:1016A000BF09803D9740A105B10508F0A8C08FEFA4
:1016B00095E00E94AC13892B09F472C08FEF95E07E
:1016C0000E942812682F8EEB95E00E940C0502976D
:1016D00071F78091FC05882361F08091E7058860AF
:1016E0008093E7051092FD058091FC058150809361
:1016F000FC058091E20580FF0CC02091FB059091D4
:10170000E10520FF04C02091FA05291710F49093F9
:10171000FA0581FF0CC09091DD059093F60590913C
:10172000DE059093F7059091DF059093F80582FF11
:1017300010C09091DB059093F4059091DA05909399
:10174000F3059091D9059093F2059091E00590935F
:10175000F90583FF09C088E0E0EDF5E0A9EEB5E00A
:1017600001900D928A95E1F78091E20584FF04C013
:101770008091D8058093F1059091E2058091FB0559
:10178000892B8093FB058091E70584FF90CF109211
:10179000FE058091FC0581118ACF0093FC0587CF5F
:1017A0008091FC05882309F474CFCE0101960E9434
:1017B0001A0B8091FC058823C1F081508093FC05B1
:1017C0008091FD05189FC0011124FC01E751FA4FDB
:1017D000DE011196212F01900D922A95E1F7875194
:1017E0009A4F0E941A0B1092FD0583E1FE0131967B
:1017F000ABEAB5E001900D928A95E1F758CF639678
:101800000FB6F894DEBF0FBECDBFDF91CF911F9111
:101810000F91FF90EF90DF90CF900895CF92DF92DD
:10182000EF92FF920F931F93CF93DF936C017A0196
:101830008B01C0E0D0E0CE15DF0581F0D8016D91BD
:101840008D01D601ED91FC910190F081E02DC60152
:101850000995892B11F02196EECF7E01C701DF910A
:10186000CF911F910F91FF90EF90DF90CF9008954F
:101870000F931F93CF938C01C62F68312CF46530E2
:101880005CF0653114F409C0C7E147E06DE4C801BC
:101890000E940915C35006C0C5E044E06DE4C801CC
:1018A0000E9409154BEF4C0F406869E0C801CF91C9
:1018B0001F910F910C940915CF93DF93EC0144EE27
:1018C00066E00E94091540EC67E0CE010E94091510
:1018D00040E068E0CE010E940915C05EDE4F81E065
:1018E0008883DF91CF910895CF93DF93A091FC027D
:1018F000B091FD02109709F457C01C968C911C976B
:10190000883038F08E3040F0863148F0E0E0F0E08A
:1019100008C0EDE6F0E005C0EBE6F0E002C0ECE662
:10192000F0E05FB7F8941092FD021092FC0230973D
:10193000D1F11C969C911C97963118F0C0E0D0E034
:1019400002C0C8E6D0E03881983060F021E09E30D7
:1019500008F420E081E090E001C0880F2A95EAF7C2
:10196000809501C08BEF8323888360811C964C9106
:10197000483038F481E090E001C0880F4A95EAF7DA
:101980000FC0242F30E04E3018F42850310902C027
:101990002E50310981E090E001C0880F2A95EAF7C6
:1019A0008095862380835FBF60E080910B060E9454
:1019B000541A80910B0690E0FC01EE5FFA4FE4911F
:1019C000E093FB02FC01E251FB4FE491F0E0EE0FEB
:1019D000FF1FEC51FB4F8591949190930E068093DD
:1019E0000D0680910C0690E0FC01EE5FFA4F249109
:1019F0002093FA02FC01E251FB4FE491F0E0EE0F7C
:101A0000FF1FE652FB4FA591B491B093F902A0934A
:101A1000F802109719F0EC91E22BEC9361E08091C1
:101A20000C060E94541A80910B06883040F08E30CC
:101A300048F0863108F089C0ECE6F0E005C0EDE63C
:101A4000F0E002C0EBE6F0E08FEF8093F702109237
:101A5000F6021092F50280910F0690911006811502
:101A60002BE4920709F049C08DE08093F4028EE4E4
:101A70008093F30286E08093F2025FB7F89460816E
:101A800040910B06483030F491E001C0990F4A951F
:101A9000EAF70EC0242F30E04E3018F428503109F8
:101AA00002C02E50310991E001C0990F2A95EAF742
:101AB000892F862B808390910B06963118F0E0E0F9
:101AC000F0E002C0E8E6F0E03081983058F021E024
:101AD0009E3008F420E091E0892F01C0880F2A95FC
:101AE000EAF701C084E0832B80838FEF95E0909329
:101AF000FD028093FC025FBF28C081302BE4920777
:101B000060F48038954209F0B8CF8AE18093F402FE
:101B100087E28093F3028AE0AECF82312AE7920710
:101B200041F488E08093F40280E88093F30285E03A
:101B3000A2CF8115964909F0A0CF86E08093F402E8
:101B40008DE98093F30284E096CFDF91CF910895E1
:101B5000FC01613311F0613411F483E01FC0603384
:101B600021F06E3411F0663511F413A218C06233FF
:101B700011F0643411F484E011C0633311F487E090
:101B80000DC0643311F486E009C0653311F485E0BB
:101B900005C0663311F0653429F481E083A384A184
:101BA000816084A380E00895CF93DF93FC0130919E
:101BB000F7023F3FA9F1A685B7859C918091FB0272
:101BC000892371F126B58091F3029091F202290FD9
:101BD0009091F102291B99E0931B492F50E0289F17
:101BE00090011124232F332726952695421753075A
:101BF000B8F48091F0022091EF02915018F0822BFE
:101C0000220FFBCFEF018093F0022093EF0290931D
:101C1000F7020E94781581E02A893B89232B09F07D
:101C200080E0DF91CF910895CF93DF93FC01228173
:101C300033812230310569F0EC01678D858D0E947A
:101C40008C1960E08C8D0E948C1982E090E09B835F
:101C50008A83DF91CF910895CF93DF93FC01228196
:101C600033812230310549F0EC0141E061E00E940E
:101C7000091582E090E09B838A83DF91CF910895DC
:101C8000CF92DF92EF92FF921F93CF93DF93EC01FD
:101C900062E10E944B15182F6CE1CE010E944B159A
:101CA0002A813B812430310579F482958695869589
:101CB000837091E0892780FBEE24E0F8F12C812FDE
:101CC000807AE82AEF2839F48A819B810497C9F445
:101CD00016FD24C016C0888999890196998B888B36
:101CE0004FEF62E1CE010E9409154FEF62E1CE0194
:101CF000DF91CF911F91FF90EF90DF90CF900C94E8
:101D000009158A819B81039709F0BDC013FFBBC0F1
:101D10008C899D8901969D8B8C8BBEC063E1CE0121
:101D20000E944B15F82E60E1CE010E944B15482F02
:101D30006DE0CE010E940915EFB6F894898D9A8D59
:101D4000DC01ED91FC910088F189E02D099560E0BE
:101D50008B8D0E948C19898D9A8DDC01ED91FC91FF
:101D60000190F081E02D60E009956E01B0E2CB0EAC
:101D7000D11C1F2D112379F0898D9A8DDC01ED91F5
:101D8000FC910190F081E02D60E00995F6018193CE
:101D90006F011150EFCF61E08B8D0E948C19898DFE
:101DA0009A8DDC01ED91FC910288F389E02D099573
:101DB000EFBEFF8E4FEF62E1CE010E94091569E18F
:101DC000CE010E944B157E01BFEDEB1ABEEFFB0A60
:101DD00087FD8D5F85958595F70180836AE1CE014A
:101DE0000E944B1590E09F878E87D7012C918E859E
:101DF0009F8527FF07C0820F911D27FD9A959F871A
:101E00008E870BC024E0880F991F2A95E1F76FE0B9
:101E100070E00E94CA277F876E87FE01E05EFE4F5A
:101E20008081882329F08E859F858D59910904C072
:101E30008E859F85845A91099F878E878F8DFE019D
:101E4000E15EFE4F843090F088A18E8389A18F835C
:101E50008AA188878BA189878D8181110CC09E8181
:101E60008C81981741F08E818F3F29F080818823E3
:101E700009F436CF11C08A899B8901969B8B8A8B86
:101E800081E08083F3CF8A819B81059709F028CF79
:101E900012FF26CF11701E8BCE010E942C0E20CF78
:101EA0008230B8F4E82FF0E0EE0FFF1FE050FF4F54
:101EB00071836083813039F0809169008360809301
:101EC0006900E89A0895809169008C6080936900A8
:101ED000E99A08950F931F93CF93DF93EC018881C4
:101EE0009981009729F02A813B812617370788F4CA
:101EF0008B016F5F7F4F0E94E427009761F0998309
:101F000088831B830A832C813D81232B11F4FC01E0
:101F1000108281E001C080E0DF91CF911F910F918D
:101F20000895CF92DF92EF92FF920F931F93CF937A
:101F3000DF93CDB7DEB72E970FB6F894DEBF0FBE96
:101F4000CDBF8C01CB01BA012AE0AE014F5F5F4FDC
:101F50006A010E941225F60101900020E9F73197ED
:101F6000EC19FD09E1F0D8011496ED90FC9015975D
:101F7000EE0EFF1EB701C8010E946A0F882381F090
:101F8000F8012081318184819581B601820F931FF0
:101F90000E94CC28D8011596FC92EE92149781E00D
:101FA0002E960FB6F894DEBF0FBECDBFDF91CF9156
:101FB0001F910F91FF90EF90DF90CF900895EF92D7
:101FC000FF920F931F93CF93DF9300D0CDB7DEB76F
:101FD0008C0169831A82FC01E480F580FFEFEF1A1F
:101FE000FF0AB7010E946A0F882381F0F80120815F
:101FF000318184819581BE016F5F7F4F820F931F76
:102000000E94CC28F801F582E48281E00F900F90C5
:10201000DF91CF911F910F91FF90EF900895EF9274
:10202000FF920F931F93CF93DF938C017B01C0E04E
:10203000D0E0F701EC0FFD1F6491662361F0D80139
:10204000ED91FC910190F081E02DC8010995892B5B
:1020500011F02196EECFCE01DF91CF911F910F911C
:10206000FF90EF9008956115710579F0FB010190E3
:102070000020E9F73197AF01461B570BDC01ED91CA
:10208000FC910280F381E02D099480E090E00895B6
:102090008F929F92AF92BF92EF92FF920F931F93F6
:1020A000CF93DF93CDB7DEB7A1970FB6F894DEBF1D
:1020B0000FBECDBF7C01FA01CB0119A2223008F47A
:1020C0002AE08E010F5D1F4F822E912CA12CB12C86
:1020D000BF01A50194010E947426F901CA010150B3
:1020E00011096A3014F4605D01C0695CD8016C9319
:1020F000232B242B252B61F7B801C7010E94331035
:10210000A1960FB6F894DEBF0FBECDBFDF91CF9181
:102110001F910F91FF90EF90BF90AF909F908F9085
:102120000895462F50E060E070E02AE00C944810DB
:1021300061EB72E00C9433100F931F93CF93DF93F6
:10214000EC012AE00E9448108C01CE010E949810F8
:10215000800F911FDF91CF911F910F910895CF9222
:10216000DF92EF92FF920F93922F841708F4885E0C
:10217000481302C0691710F0841B01C087E1262FA5
:10218000291B961710F0245C81505FEF520F282F07
:1021900030E0A0E1BEE00E94FF266B017C01252F0C
:1021A00030E0ACE3B0E00E94FF26C60ED71EE81E6A
:1021B000F91E8CE3801BC80ED11CE11CF11C64ECE1
:1021C00074E08091AA039091AB030E940F10B701B5
:1021D000A6018091AA039091AB030E949C10C701B5
:1021E000B6010E9453256B017C012AE939E949E1D6
:1021F0005EE30E9490259B01AC01C701B6010E94DD
:102200000E270E947B276B017C016BEA74E08091B2
:10221000AA039091AB030E940F10B701A601809111
:10222000AA039091AB030E949C10C701B6010F91C5
:10223000FF90EF90DF90CF900895CF92DF92EF92D2
:10224000FF92CF93DF936C01990FEE08FF08F7FE22
:1022500015C06DE28CEA93E00E94B417EC014427AC
:102260005527BA014C195D096E097F092AE08CEAED
:1022700093E00E944810C80FD91F08C02AE0B70198
:10228000A6018CEA93E00E944810EC018CEA93E0EE
:102290000E9498108C0F9D1FDF91CF91FF90EF90BF
:1022A000DF90CF9008950F931F93CF93DF93EC01AE
:1022B0000E9433108C01CE010E949810800F911F54
:1022C000DF91CF911F910F9108950F931F93CF939B
:1022D000DF93EC010E940F108C01CE010E94981038
:1022E000800F911FDF91CF911F910F910895089555
:1022F00080915F06882361F09FB7F89420915F0674
:1023000080915E06213019F48DBB9FBF08958FBF69
:102310000895FC012085918580915F06882379F0DE
:102320008FB7F89430915F06313039F43DB3309374
:102330005E063DB33DBB8FBF02C080935E062CBDE1
:102340009DBD08959FB7F89480915D06882319F08C
:10235000815080935D0680915D06811105C08CB52A
:102360008F7B8CBD10925F069FBF08958CB58F77D1
:102370008CBD08958CB580688CBD08956EBD00003D
:102380000DB407FEFDCF8EB50895FC017383628303
:102390000895FC01778366830895FC017583648347
:1023A000089508950895FC01848995890895FC0194
:1023B000828993890895FC0180899189089580E03C
:1023C0000895FC01738362830895FC0182819381E7
:1023D0000895FC01868597850895FC0181850895FF
:1023E000FC0180850895FC0187810895FC018681A8
:1023F0000895FC01409595854923642B65870895D0
:10240000FC0164870895FC0163870895FC016287DD
:102410000895FC0164830895FC0165830895FC011F
:102420002281338123303105D1F381E00895CF93A8
:10243000DF93EC01E881F9810280F381E02DCE0188
:1024400009958823B9F3DF91CF91089581E008952C
:102450002091F6028091F502821769F030E0F901CF
:10246000E35EF94F80812F5F3F4F2F733327209317
:10247000F60290E008958FEF9FEF0895CF93DF93DA
:10248000EC01898D9A8DDC01ED91FC910680F7813C
:10249000E02D099561E08B8D0E94541A61E08B8DCF
:1024A0000E948C1964E670E080E090E00E94901A2F
:1024B00081E0DF91CF9108950F931F93CF93FC019B
:1024C000828193818430910569F08330910579F0A0
:1024D0008230910589F00197A1F040E452E46FE069
:1024E00070E013C040E054E264EF70E00EC040E0E2
:1024F00052E16AE770E009C040E059E06DE370E046
:1025000004C040E854E86EE170E08681978100974E
:1025100071F08130910539F08230910531F00397E7
:1025200031F49CE005C094E003C098E001C090E065
:1025300000E012E12AE730E080E04017510762072F
:10254000730740F436952795179507958F5F86306A
:10255000A1F787E021E028274481558141305105CA
:1025600011F080E501C080E7322F3695932B982B30
:10257000908721702187CFB7F89480915D068111F3
:1025800027C0E8EFF4E08491ECE0F5E09491E82FC7
:10259000F0E0EE0FFF1FEE5DFA4FA591B491EC91C4
:1025A000E92321F461E08AE00E948C1961E08AE06D
:1025B0000E94541A8CB580618CBD8CB580648CBD32
:1025C00061E08DE00E94541A61E08BE00E94541A91
:1025D00080915D068F5F80935D06CFBFCF911F9185
:1025E0000F9108958F929F92AF92BF92CF92DF92F8
:1025F000EF92FF92CF93DF93EC016B010E94761B69
:102600004B015C01E12CF12C0E94761BDC01CB011B
:1026100088199909AA09BB098C159D05AE05BF0546
:1026200030F48A819B81039779F381E001C080E0D7
:10263000DF91CF91FF90EF90DF90CF90BF90AF9060
:102640009F908F9008958F929F92AF92BF92CF925A
:10265000DF92EF92FF92CF93DF93EC016B010E9428
:10266000761B4B015C01E12CF12C0E94761BDC01F6
:10267000CB0188199909AA09BB098C159D05AE05DE
:10268000BF0550F4E881F9810280F381E02DCE018D
:102690000995882351F301C080E0DF91CF91FF902D
:1026A000EF90DF90CF90BF90AF909F908F90089564
:1026B0008F929F92AF92BF92CF92DF92EF92FF9252
:1026C000CF93DF93FC012789308D232BB9F1EC01E7
:1026D0000E94761B4B015C0189E0C82ED12CE12CB5
:1026E000F12CE881F9810488F589E02DCE01099566
:1026F000882321F10E94761BAB01BC0148195909BE
:102700006A097B098F89988DA0E0B0E0841795074E
:10271000A607B707A8F00E948624A70196010E9489
:1027200096269B01AC012F5F3F4F4F4F5F4FA4E6B2
:10273000B0E00E94B5260E94901AD3CF81E001C07C
:1027400080E0DF91CF91FF90EF90DF90CF90BF902E
:10275000AF909F908F9008959C018091F50290E03A
:102760004091F602841B9109805C9F4F60E470E009
:102770000E94CA27811105C0C901F8940E94D40D96
:10278000789490E008951F920F920FB60F92112443
:102790002F933F934F935F936F937F938F939F9369
:1027A000AF93BF93CF93DF93EF93FF93809102009A
:1027B00090910300049709F0C5C020911B0030E000
:1027C000F901E45DFA4F8491F901EE5FFA4FD4917B
:1027D000F901E251FB4FC491CC2379F081110E94A1
:1027E0006319EC2FF0E0EE0FFF1FEC51FB4FA591AA
:1027F000B491EC91ED2381E009F480E08170909137
:102800001E00892719F093B19F5F93B992B1981771
:1028100059F094B1903510F09DE101C09BE024B1D6
:10282000920F94B982B903C084B18C5E84B984B12B
:10283000803A08F4DBC086B197B19695879597B931
:1028400086B983B1853028F086B197B1986097B981
:1028500086B984B1805A84B913B885B1882309F444
:1028600065C088B18F5F88B98C3008F4BFC086B16D
:1028700097B1982F9F73892F86958695887028E049
:10288000280F281749F0E82FF0E0EE52FE4F308174
:10289000931719F08F5FF5CF80E020E1829FC00190
:1028A000112426B137B196E0369527959A95E1F730
:1028B000422F3695279536952795287038E0320FA8
:1028C000321749F0E22FF0E0EE52FE4F50814517EB
:1028D00019F02F5FF5CF20E0822B90916D009923A6
:1028E000B1F0E0916D0091E09E0F90936D00F0E0EB
:1028F00081A790916D0080916C009817A8F015B891
:1029000081E080B980E090E00E94140E0DC08093B9
:102910006C0090916C00973008F45EC090916C0050
:10292000943408F059C0DDCF18B860C086B197B1B3
:1029300088339B4009F05AC081E085B918B81092DD
:102940006D0054C08091020090910300039709F03C
:102950004DC08091700091E0980F909370008111AC
:1029600034C0E0916E008091FF00E81770F080E0C5
:1029700090E00E94140E8091140090911500019631
:10298000909315008093140020C0F0E0EF58FF4FA3
:10299000608170E080916F0091E0980F90936F00DC
:1029A00002C0759567958A95E2F7617080911C0069
:1029B0000E948C1980916F00863038F010926F0061
:1029C00080916E008F5F80936E00809170008830E0
:1029D00068F0109270000AC015B8809110009091B4
:1029E000110001969093110080931000FF91EF91D8
:1029F000DF91CF91BF91AF919F918F917F916F9117
:102A00005F914F913F912F910F900FBE0F901F90AC
:102A10001895FF920F931F93CF93DF93EC01162F1E
:102A2000F42E0FB7F894898D9A8DDC01ED91FC910D
:102A30000088F189E02D099560E08B8D0E948C194A
:102A4000898D9A8D612F6068DC01ED91FC91019078
:102A5000F081E02D0995182F898D9A8DDC01ED917B
:102A6000FC910190F081E02D6F2D099561E08B8D37
:102A70000E948C19898D9A8DDC01ED91FC91028860
:102A8000F389E02D09950FBF812FDF91CF911F9121
:102A90000F91FF9008950F931F93CF93DF93EC0155
:102AA000162F0FB7F89460E08B8D0E948C19898DDA
:102AB0009A8D612F6F77DC01ED91FC910190F0818F
:102AC000E02D0995898D9A8DDC01ED91FC910190A5
:102AD000F081E02D60E00995182F61E08B8D0E9458
:102AE0008C190FBF812FDF91CF911F910F91089506
:102AF000E091FC02F091FD023097C1F00288F38969
:102B0000E02D309709F009942091F50230E0A901F9
:102B10004F5F5F4F4F7355279091F602941731F036
:102B2000F901E35EF94F80834093F5020895EF9237
:102B3000FF920F931F93CF93DF93F6B4E090FB02C5
:102B4000E8225091F7025F3F51F4E11056C0109215
:102B5000F70281E08093EF021092F00248C080916A
:102B6000F302C091F202CF0D9091F102C91BC89FF0
:102B7000E0011124CD2FDD27C695C69549E0451B00
:102B8000042F10E00C171D0708F04C2F540F509322
:102B9000F7028091F0029091EF02292FE1100FC00F
:102BA0004150922F990F4F3F19F0822B292FF8CFC8
:102BB0008093F0029093EF025830C8F01BC0415050
:102BC00001C0220F4A95EAF72093EF02822B8093EF
:102BD000F002583060F00E94781581E0E81621F08C
:102BE0000C171D0708F4B3CF8FEF8093F702F09214
:102BF000F10203C00E947815F3CFDF91CF911F91AE
:102C00000F91FF90EF900895CF92DF92EF92FF9295
:102C10000F931F93CF93DF938C01D62E8091F802F0
:102C20009091F902892B09F456C0D8011C969C9109
:102C3000983050F081E09E3008F480E0D1E001C08F
:102C4000DD0F8A95EAF701C0D4E0CFB6F894F6B468
:102C500090E0E12CE394E091F802F091F902809188
:102C6000FA02BAE0EB1659F1992319F09081892BF9
:102C700003C09081809589238083C091F402C6307F
:102C800011F4E0FCC7E086B58F198C1798F48BB36C
:102C90008D2361F08BB38D2B8BBBD8011E96ED91EC
:102CA000FC911F9780810E949715EDCFC8010E946B
:102CB000D40DE9CFFC0E9D2D9170D694CBCF908191
:102CC000892B8083CFBE86B58F198C1738F4C80145
:102CD0000E94D40DF8CF80E090E002C081E090E047
:102CE000DF91CF911F910F91FF90EF90DF90CF90E8
:102CF00008951F920F920FB60F9211242F933F93B6
:102D00004F935F936F937F938F939F93AF93BF93F3
:102D1000EF93FF9389B10E949715FF91EF91BF91B7
:102D2000AF919F918F917F916F915F914F913F9163
:102D30002F910F900FBE0F901F9018951F920F921A
:102D40000FB60F9211242F933F934F935F936F937E
:102D50007F938F939F93AF93BF93EF93FF9386B12E
:102D60000E949715FF91EF91BF91AF919F918F9125
:102D70007F916F915F914F913F912F910F900FBE77
:102D80000F901F9018951F920F920FB60F9211245B
:102D90002F933F934F935F936F937F938F939F9363
:102DA000AF93BF93EF93FF9383B10E949715FF9169
:102DB000EF91BF91AF919F918F917F916F915F91B3
:102DC0004F913F912F910F900FBE0F901F9018952C
:102DD0001F920F920FB60F9211248F930FB6F89493
:102DE000A8958091600088618093600010926000D7
:102DF0000FBE8F910F900FBE0F901F901895411529
:102E0000510529F4EAE7F0E080818F7780836A300A
:102E10007105A9F063FD02C088E001C088E2677017
:102E2000682B88E10FB6F894A895809360000FBED8
:102E300060936000E0E6F0E0808180648083232B73
:102E4000A1F483B7817F846083BFF89483B78160E6
:102E500083BF85B7806685BF8F7D85BF7894889551
:102E600083B78E7F83BF78940EC083B7817F8460E1
:102E700083BFF89483B7816083BF7894889583B7C4
:102E80008E7F83BF7894452B29F4EAE7F0E08081B8
:102E9000806880830895FC01538D448D252F30E098
:102EA000842F90E0821B930B541710F0CF96089557
:102EB00001970895FC01918D828D981761F0828DA4
:102EC000DF01A80FB11D5D968C91928D9F5F9F735E
:102ED000928F90E008958FEF9FEF0895FC01918D00
:102EE000828D981731F0828DE80FF11D858D90E06D
:102EF00008958FEF9FEF0895FC01918D228D892F0A
:102F000090E0805C9F4F821B91098F7399270895F1
:102F10008CEA93E00E947C1721E0892B09F420E0E1
:102F2000822F0895FC01848DDF01A80FB11DA35AE3
:102F3000BF4F2C91848D90E001968F739927848FD9
:102F4000A689B7892C93A089B1898C9183708064FC
:102F50008C93938D848D981306C00288F389E02D9D
:102F600080818F7D80830895EF92FF920F931F934E
:102F7000CF93DF93EC0181E0888F9B8D8C8D98132C
:102F800005C0E889F989808185FD26C0F62E0B8D64
:102F900010E00F5F1F4F0F731127E02E8C8DE8128A
:102FA0000CC00FB607FCFACFE889F989808185FF4C
:102FB000F5CFCE010E949217F1CF8B8DFE01E80F65
:102FC000F11DE35AFF4FF0829FB7F8940B8FEA8907
:102FD000FB89808180620AC09FB7F894EE89FF89DF
:102FE0006083E889F98980818370806480839FBFD2
:102FF00081E090E0DF91CF911F910F91FF90EF90D2
:103000000895CF93DF93EC01888D8823C9F0EA8976
:10301000FB89808185FD05C0A889B9898C9186FDD1
:103020000FC00FB607FCF5CF808185FFF2CFA889CE
:10303000B9898C9185FFEDCFCE010E949217E7CF21
:10304000DF91CF91089580E090E0892B29F00E94D4
:10305000881781110C94000008953FB7F89480916F
:103060006C0690916D06A0916E06B0916F0626B524
:10307000A89B05C02F3F19F00196A11DB11D3FBFB0
:10308000BA2FA92F982F8827820F911DA11DB11D3E
:10309000BC01CD0142E0660F771F881F991F4A953A
:1030A000D1F7089508958BEF08950E94AA28CF9331
:1030B000DF93EC018A819B81059771F047E061E025
:1030C000CE010E94091540E860E4CE010E94091576
:1030D00085E090E09B838A838A819B810597E1F359
:1030E0008E89DF91CF910895CF93DF93FC012281E8
:1030F00033812130310549F0EC0140E061E00E946C
:10310000091581E090E09B838A8381E0DF91CF9174
:103110000895CF93DF93FC01228133812330310561
:10312000B9F0EC0182819381049771F045E061E090
:10313000CF010E94091540E060E4CE010E9409150C
:1031400084E090E09B838A83C15EDE4F888101C06A
:1031500080E0DF91CF910895CF92DF92EF92FF92BE
:103160000F931F93CF93DF93EC017B018A01E881DA
:10317000F9810280F381E02D0995D82E882331F161
:10318000E114F104D9F001151105C1F0CFB6F8949E
:103190008F8D90E00397F801208130E028173907E0
:1031A0001CF08F8D84508083F801408150E0BE0177
:1031B0006C5D7F4FC7010E94AF28CFBE8FB7F894D8
:1031C000FE01E15EFE4F10821F8E8FBF8D2DDF91BD
:1031D000CF911F910F91FF90EF90DF90CF900895C6
:1031E0008091650690916606009711F00C94400E50
:1031F00008958091630690916406009711F00C94F5
:10320000400E08958091610690916206009711F03A
:103210000C94400E08951F920F920FB60F92112436
:103220002F933F934F935F936F937F938F939F93CE
:10323000AF93BF93EF93FF938CEA93E00E949217B2
:10324000FF91EF91BF91AF919F918F917F916F917E
:103250005F914F913F912F910F900FBE0F901F9054
:1032600018951F920F920FB60F9211242F938F93E0
:103270009F93EF93FF93E091BC03F091BD03808196
:10328000E091C203F091C30382FD12C0908180914E
:10329000C5038F5F8F732091C603821751F0E091B1
:1032A000C503F0E0E455FC4F958F8093C50301C042
:1032B0008081FF91EF919F918F912F910F900FBE81
:1032C0000F901F901895833081F028F4813099F089
:1032D0008230A1F008958730A9F08830B9F08430A9
:1032E000D1F4809180008F7D03C0809180008F7722
:1032F00080938000089584B58F7702C084B58F7D58
:1033000084BD08958091B0008F7703C08091B00094
:103310008F7D8093B00008951F93CF93DF93282F64
:1033200030E0F901E45DFA4F8491F901EE5FFA4F64
:10333000D491F901E251FB4FC491CC23C1F0162F77
:1033400081110E946319EC2FF0E0EE0FFF1FE6528F
:10335000FB4FA591B4919FB7F894111104C08C91C3
:10336000D095D82302C0EC91DE2BDC939FBFDF9178
:10337000CF911F910895BF92CF92DF92EF92FF926B
:103380000F931F93CF93DF934C3F10F0E12C81C03C
:10339000142F072FF62EEC01E881F9810484F585BE
:1033A000E02D0995CE010E942C0EE881F98102885A
:1033B000F389E02DCE010995E82E882339F340E00A
:1033C0006DE0CE010E9409154A8560E0CE010E94A1
:1033D00009154B8560E0CE010E9409154C8560E01F
:1033E000CE010E9409154D8560E0CE010E940915AD
:1033F000BFB6F894898D9A8DDC01ED91FC9100881F
:10340000F189E02D099560E08B8D0E948C19898DE2
:103410009A8DDC01ED91FC910190F081E02D60E846
:103420000995CF2CD02E012F015068F0898D9A8DEF
:10343000F60161916F01DC01ED91FC910190F08149
:10344000E02D0995F1CF61E08B8D0E948C19898D5B
:103450009A8DDC01ED91FC910288F389E02D0995AC
:10346000BFBE44E0410F62E2CE010E9409158A818D
:103470009B81039771F043E061E0CE010E94091542
:1034800040E460E4CE010E94091583E090E09B8354
:103490008A838E2DDF91CF911F910F91FF90EF9036
:1034A000DF90CF90BF900895CF93DF9390E0FC0121
:1034B000EE5FFA4F2491FC01E251FB4F8491882387
:1034C00061F190E0880F991FFC01EE5DFA4FC59104
:1034D000D491FC01E652FB4FA591B491611109C052
:1034E0009FB7F8948881209582238883EC912E23BE
:1034F0000BC0623061F49FB7F8948881322F309509
:1035000083238883EC912E2B2C939FBF06C08FB70B
:10351000F894E8812E2B28838FBFDF91CF910895F7
:103520008F929F92AF92BF92CF92DF92EF92FF92D3
:103530006B017C010E942D184B015C01C114D10468
:10354000E104F104F1F00E942D18DC01CB0188198F
:103550009909AA09BB09883E9340A105B10570F3FA
:1035600021E0C21AD108E108F10888EE880E83E054
:10357000981EA11CB11CC114D104E104F10419F777
:10358000DDCFFF90EF90DF90CF90BF90AF909F90F6
:103590008F900895EF92FF920F931F93CF93DF9335
:1035A00000D01F92CDB7DEB78C010E943E12E82EEC
:1035B000811102C0E12C8FC0D8015D968C918230C0
:1035C00029F08330B9F7FF24F39401C0F12CD8011E
:1035D00059968D919C915A97DC01ED91FC9104884C
:1035E000F589E02D6F2D099540E861E0C8010E9442
:1035F00009156AE070E080E090E00E94901A61E0B6
:10360000C8010E944B158038A9F660E0F801858D4D
:103610000E94541AD8015E968C915E978F3F51F4A8
:1036200080916006843030F691E0980F90936006A8
:103630005E968C93F801868DE82FF0E0EE0FFF1F69
:10364000EF59F94F11830083811103C062E079E1E2
:103650000AC0813019F469EF78E105C0823009F0C1
:10366000A9CF60EF78E18F2D0E94500F40E06EE00F
:10367000C8010E94091540E06FE0C8010E940915C9
:10368000C8010E942C0E43E050E066E175E0CE01D7
:1036900001960E94DD2449816DE1C8010E9409154F
:1036A0004A816EE1C8010E9409154B8166E2C8019A
:1036B0000E94091540E060E2C8010E94091548E037
:1036C00061E2C8010E940915C8010E945C0C6DE00E
:1036D000C8010E94380C8E2D0F900F900F90DF9133
:1036E000CF911F910F91FF90EF9008952FB7F8940D
:1036F000609168067091690680916A0690916B06E8
:103700002FBF08951F920F920FB60F9211242F937F
:103710003F938F939F93AF93BF938091680690914F
:103720006906A0916A06B0916B063091670623E0A6
:10373000230F2D3720F40196A11DB11D05C026E8E9
:10374000230F0296A11DB11D209367068093680682
:1037500090936906A0936A06B0936B0680916C06FD
:1037600090916D06A0916E06B0916F060196A11D15
:10377000B11D80936C0690936D06A0936E06B09376
:103780006F06BF91AF919F918F913F912F910F90B5
:103790000FBE0F901F9018951F920F920FB60F92A9
:1037A00011242F933F934F935F936F937F938F9346
:1037B0009F93AF93BF93EF93FF93E0910201F0913A
:1037C00003010995FF91EF91BF91AF919F918F9167
:1037D0007F916F915F914F913F912F910F900FBE0D
:1037E0000F901F9018951F920F920FB60F921124F1
:1037F0002F933F934F935F936F937F938F939F93F9
:10380000AF93BF93EF93FF93E0910001F09101011B
:103810000995FF91EF91BF91AF919F918F917F910A
:103820006F915F914F913F912F910F900FBE0F902D
:103830001F901895CF93DF93CDB7DEB76B970FB678
:10384000F894DEBF0FBECDBF789484B5826084BD8E
:1038500084B5816084BD85B5826085BD85B5816094
:1038600085BD80916E00816080936E001092810012
:1038700080918100826080938100809181008160CD
:10388000809381008091800081608093800080918E
:10389000B10084608093B1008091B000816080931A
:1038A000B00080917A00846080937A0080917A00E1
:1038B000826080937A0080917A00816080937A00A0
:1038C00080917A00806880937A001092C10080E431
:1038D00080937C0080917A00806480937A0080914C
:1038E0007A0086FDFCCF609178008091790070E0CD
:1038F000782B072E000C880B990B6115710581053B
:10390000910511F00E94D42480910F069091100629
:103910008038954279F080E895E290931006809384
:103920000F068091FC029091FD028F5F954011F48B
:103930000E94740C0E94740CE091BC03F091BD03D2
:1039400082E08083E091B803F091B9031082E091A6
:10395000BA03F091BB0380E180831092C403E0912D
:10396000C003F091C10386E08083E091BE03F09133
:10397000BF03808180618083E091BE03F091BF032B
:10398000808188608083E091BE03F091BF038081D5
:1039900080688083E091BE03F091BF0380818F7DBA
:1039A000808364EF71E080E090E00E94901A61E013
:1039B00086E00E94541A61E085E00E94541A61E09A
:1039C00085E00E948C1960E086E00E948C1968EA0C
:1039D00071E08091A6039091A7030E94651161E0B8
:1039E00080E090E00E9456266AE971E08091A6038B
:1039F0009091A7030E940F100091A6031091A703B6
:103A000061E0C8010E949110C8010E94981080E0F6
:103A100090E00E944E26182F6CE871E08091A6037A
:103A20009091A7030E940F10E090A603F090A703C7
:103A3000612FC7010E949110C7010E9498108091C8
:103A4000A6039091A703113009F088C06FE571E0DB
:103A50000E94651180E090E00E944E26F82E80932F
:103A6000FF028BE091E00E941A238C0189E894E028
:103A7000D80111969C938E931296FC92F8011382B2
:103A8000148215821682178228EC30E03187208755
:103A900023E022873B9620E031E0DF01A9011D925F
:103AA00041505040E1F7909301038093000310933D
:103AB000030300930203E0918904F0918A040190CA
:103AC000F081E02D0995882309F44DC0D8011296A4
:103AD000FC9012978D919C91DC01ED91FC910688F0
:103AE000F789E02D6F2D0995F80180819181DC0126
:103AF000ED91FC91028CF38DE02D6F2D0995F8016D
:103B0000F28267E180910003909101030E94380CDA
:103B100080910003909101030E945C0C00910003CE
:103B20001091010342E060E2C8010E94091546E2DB
:103B300061E2C8010E9409151092040310924B0320
:103B40008091000390910103DC01ED91FC9100A8AC
:103B5000F1A9E02D099561ED72E007C068E771E019
:103B60000E94651199C16FEB72E08CEA93E00E94AC
:103B7000651168EE73E080E090E00E94901A6BEAB5
:103B800072E08CEA93E00E940F108091720690918F
:103B900073068E010F5F1F4F009721F4C8018657EF
:103BA000964004C0F801E81BF90BCF019A83898382
:103BB00089819A810E941D118CEA93E00E949810DD
:103BC00061E086E00E948C1968EE73E080E090E08E
:103BD0000E94901A6BED71E080914B0490914C041F
:103BE0000E94651159E4A52E54E0B52E6DE4C62E51
:103BF00064E0D62E1E01F9E02F0E311CD5015C9633
:103C00009C90892D90E00E941A237C01DC0180E0C9
:103C100090E0891508F040C0F60124A135A1F90112
:103C2000E80FF91FE491ED930196F3CF80914904D9
:103C300090914A04DC01ED91FC910084F185E02D26
:103C40000995892B09F488C08091490490914A0410
:103C5000DC01ED91FC910284F385E02D0995F801DA
:103C6000E90DF11D9081981709F47BC0912C0E94F9
:103C7000761BDC01CB0184199509A609B709893B9C
:103C80009B40A105B10590F26AEB71E080914B0475
:103C900090914C040E946511D5015C966C908091C6
:103CA000490490914A04DC01ED91FC910680F78172
:103CB000E02D09958091490490914A04DC01ED9131
:103CC000FC910190F081E02D6FEF0995BFEFE9E6DF
:103CD000F8E1B150E040F040E1F700C000004701DA
:103CE000712CC4018E199F09861597057CF480916B
:103CF000490490914A04D4016D914D01DC01ED918C
:103D0000FC910190F081E02D0995EBCF0E94761B8C
:103D10002B013C01B5EBB983E2E6EA83F5E0FB83D6
:103D200021E02C8332E03D831E82D70112968C91D4
:103D300012978F8313968C91888719861A86FE01B5
:103D4000339691918985890F89879A85890F8A870A
:103D50002E163F06B1F7912CB9E0B91508F087CFC0
:103D600002C09394F9CF61EC71E080914B04909183
:103D70004C040E940F10F601619171916F018091C6
:103D80004B0490914C040E945311C7010E94B2232E
:103D9000FFEFAF1ABF0A25E634E02C153D0509F008
:103DA0002DCF60E086E00E948C198CEA93E00E949F
:103DB000981064EF71E080E090E00E94901A61E951
:103DC00072E08CEA93E00E9465116FE672E08CEA83
:103DD00093E00E94651163E672E08CEA93E00E9432
:103DE00065116EE472E08CEA93E00E9465116BE36A
:103DF00072E08CEA93E00E940F102AE043E150E069
:103E000060E070E08CEA93E00E9448108CEA93E056
:103E10000E94981064E272E08CEA93E00E940F1016
:103E20002AE041E450E060E070E08CEA93E00E9418
:103E300048108CEA93E00E94981062E072E08CEAED
:103E400093E00E9465118CEA93E00E9498106EEE58
:103E500071E08CEA93E00E940F10809172069091BD
:103E60007306009719F40657164002C0081B190B79
:103E70001A83098389819A810E941D118CEA93E03B
:103E80000E94981068EE73E080E090E00E94901A23
:103E90008CEA93E00E94011840E3C42ED12C7E01ED
:103EA00031E1E30EF11C6EE973E08CEA93E00E94CD
:103EB000651162E973E08CEA93E00E9465110E944B
:103EC000740C61E086E00E948C190E94761B4B0105
:103ED0005C010E94761BDC01CB0188199909AA09B3
:103EE000BB0980349C49A105B10538F48091BD051A
:103EF00083FD03C00E94330BECCF8091B305882370
:103F000071F10E94761BDC01CB0188199909AA097D
:103F1000BB0980349C49A105B10508F0B0C080916F
:103F2000BD0583FDACC00E94330BEBCF6DEE71E09D
:103F3000C5010E94C328892B09F0B1C16DED72E063
:103F40008091A6039091A7030E946511332009F484
:103F500046C264E670E080E090E00E94901A89E832
:103F600094E00E94741892E0392E1CE36FEE71E029
:103F70008CEA93E00E9453110E94740C61E086E089
:103F80000E948C190E94330B60E086E00E948C191D
:103F900065E072E08CEA93E00E9453110E9494085D
:103FA0008091BD0582FD3CC263E373E08CEA93E03F
:103FB0000E94651180E00091B4052091B505409103
:103FC000B6059091A9031092A903882349F0809126
:103FD000A803833009F447C2923009F029C243C2D2
:103FE00080E1882E8EE0982EA12CB12C63E172E046
:103FF0008091AA039091AB030E94531164EF71E08A
:1040000080E090E00E94901A412C512C32018414DF
:104010009504A604B70481F020E030E040E050E0D1
:1040200066E070E08BEC92E00E94FF164FEF441ABE
:10403000540A640A740AEBCF64EF71E080E090E008
:104040000E94901A63E272E08091AA039091AB0300
:104050000E9453118091A903811188CF8091A803F8
:1040600090E001968093A80389819A810E94B223EF
:104070008B859C850E94B2230E94231814CF64E88C
:1040800073E08CEA93E00E940F100E94761BAB0154
:10409000BC01481959096A097B098CEA93E00E941E
:1040A0009C1060E086E00E948C1966E773E08CEA61
:1040B00093E00E9465110E94940864EF71E080E033
:1040C00090E00E94901A4091AB055091AC05609130
:1040D000AD057091AE05CE010B960E94F807409198
:1040E000AF055091B0056091B1057091B205CE0158
:1040F00001960E94F80784EB95E00E94B307605890
:104100007C4B8249974C2AE0AE01455E5F4F0E948E
:1041100012256B857C858CEC92E00E94CC286EE2A7
:1041200072E08CEC92E00E94B82869817A818CEC74
:1041300092E00E94B8286EE272E08CEC92E00E945D
:10414000B828BE01655E7F4F8CEC92E00E94B828D3
:104150006DE673E08CEA93E00E940F106CEC72E065
:104160008CEA93E00E945311D98EC88EDF8ACE8AE2
:1041700080914B0390E001969F938F9382E392E0AE
:104180009F938F93FF92EF920E94E228BE01685E98
:104190007F4F8CE493E00E94CC2869EE71E08CE4C0
:1041A00093E00E94B828BE016A5E7F4F8CE493E0E2
:1041B0000E94B82869EE71E08CE493E00E94B82870
:1041C000B7018CE493E00E94B82869EE71E08CE4BA
:1041D00093E00E94B8286CEC72E08CE493E00E94BB
:1041E000B82865E372E08091A6039091A7030E942E
:1041F00053116CE473E08091A6039091A7030E9491
:10420000531110910403B5E01B9FC001112445E038
:1042100050E0B7018B5F9C4F0E94D32881E0810F53
:104220000F900F900F900F900F900F908A3009F41D
:10423000F5C0809304030091020310910303D80199
:104240008D919C91DC01ED91FC91008CF18DE02D24
:104250006FEF0995F80180819181DC01ED91FC916E
:104260000680F781E02D4DE26CE473E009958091C2
:104270004B038F5F853118F480934B0302C010927B
:104280004B036FE173E08091A6039091A7030E9416
:1042900065110E94761B2B013C013DE2232E0E94FA
:1042A000761BDC01CB0184199509A609B709803179
:1042B0009742A105B10508F092C08091000390914A
:1042C0000103DC01ED91FC9100A8F1A9E02D099515
:1042D0006CE271E080E090E00E94901A809100030F
:1042E00090910103DC01ED91FC910488F589E02DAA
:1042F0000995882311F363E173E08091A6039091FF
:10430000A7030E946511E0910203F09103038081ED
:104310009181DC01ED91FC910088F189E02D68E844
:1043200073E109952A8E0091020310910303F801AD
:1043300080819181DC01ED91FC910480F581E02D7B
:10434000AE01465E5F4F69E773E00995382E88231A
:1043500009F4A5CFF80180819181DC01ED91FC91F8
:1043600004A0F5A1E02D099569EE71E089E793E0DD
:104370000E94E6245C0169EE71E080E090E00E941A
:10438000E62469EE71E080E090E00E94E6244C01B2
:1043900069EE71E080E090E00E94E62400E010E029
:1043A000B401C8018B5F9C4F0E94C328892B89F4FC
:1043B0006BEE71E0C5010E94C328892B09F0B6CDD0
:1043C00068EF72E08091A6039091A7030E946511A7
:1043D00066CF0B5F1F4F0233110511F760CF0091BD
:1043E000FE02BDE20B9F800111242CECA22E22E0E4
:1043F000B22E0C5C1240F50161915F01C8018E0F75
:104400009F1F0E94562629EF32E02A153B0599F797
:104410008091FE028F5F8093FE029BCD80E009CFEA
:1044200064E273E08CEA93E00E94651181E0C3CD01
:10443000880F612F0E94AA276BE0690F6C3388F008
:10444000815F6FEC690F0E94AF104B015C016F310F
:1044500071058105910508F4C9CD81E08093A90318
:10446000C5CD825FF0CF1092A8036BE08EE00E9472
:10447000AF104B015C016F3171058105910508F4A6
:10448000B5CD3092A903B2CDCF92DF92EF92FF92D9
:104490000F931F93CF93DF93CCEAD3E01B821A8252
:1044A00088EE93E0A0E0B0E08C839D83AE83BF8371
:1044B0002EE431E03983288325EC30E03D872C87DA
:1044C00024EC30E03F872E8720EC30E0398B288BBE
:1044D00021EC30E03B8B2A8B22EC30E03D8B2C8BA7
:1044E00026EC30E03F8B2E8B198E1A8E1B8E1C8E85
:1044F00023E1E22E26E0F22EF701138212821582CA
:1045000014821782168220E631E03183208320E571
:10451000208711860FEF15E0F80113821282848341
:104520009583A683B78384EC91E09183808383E0B5
:10453000848784E08587138A128A3EEBC32E35E098
:10454000D32E86EB91E0F6019183808380ED95E098
:104550000E941A0B89EE95E00E941A0BF601168252
:104560001782108611861286138614861586168683
:104570001786108A118A80ED95E00E941A0BF601C9
:1045800012A68BEA95E00E941A0BE9E8F4E0138288
:1045900012828FEF84838287838714861586118A1F
:1045A000108A138A128A158A148A108E178AF28E3C
:1045B000E18E9AE0938F2AE731E0318320831092D5
:1045C000A80592E0958F868F88E1EEE0F1E0ADE4FA
:1045D000B4E001900D928A95E1F78CE0E6E2F1E01B
:1045E000A5E6B4E001900D928A95E1F788E1E2E357
:1045F000F1E0A1E7B4E001900D928A95E1F7E9E4DA
:10460000F4E0D383C28311830083E8EAF3E0D38329
:10461000C28310829183D093A703C093A603109204
:10462000FE02DF91CF911F910F91FF90EF90DF90ED
:10463000CF9008950F931F93CF93DF93823091050E
:1046400010F482E090E0E0917406F091750620E0AD
:1046500030E0A0E0B0E0309719F140815181028153
:10466000138148175907C8F08417950769F4109704
:1046700031F012960C93129713961C9327C0009357
:1046800074061093750622C02115310519F04217E2
:10469000530718F49A01BD01EF01DF01F801DBCFE8
:1046A00021153105F9F0281B390B2430310580F430
:1046B0008A819B816115710521F0FB0193838283BF
:1046C00004C09093750680937406FE01329644C030
:1046D000FE01E20FF31F8193919322503109398338
:1046E00028833AC02091720630917306232B41F43F
:1046F00020910601309107013093730620937206D2
:1047000020910401309105012115310541F42DB7A7
:104710003EB74091080150910901241B350BE091EF
:104720007206F0917306E217F307A0F42E1B3F0BFD
:104730002817390778F0AC014E5F5F4F2417350713
:1047400048F04E0F5F1F509373064093720681939B
:10475000919302C0E0E0F0E0CF01DF91CF911F9193
:104760000F910895CF93DF93009709F481C0FC0166
:10477000329713821282A0917406B0917506109739
:1047800081F420813181820F931F20917206309134
:1047900073062817390751F5F0937306E0937206F4
:1047A00067C0ED0120E030E0CE17DF0740F44A811A
:1047B0005B819E0141155105F1F0EA01F5CFD383EC
:1047C000C28340815181840F951FC817D90759F4BE
:1047D00088819981840F951F0296918380838A81B5
:1047E0009B81938382832115310529F4F09375060B
:1047F000E09374063DC0E901FB83EA834991599136
:10480000C40FD51FEC17FD0761F480819181840FDF
:10481000951F0296E90199838883828193819B8306
:104820008A83E0E0F0E012968D919C9113970097B7
:1048300019F0FD01DC01F7CF8D919C9111979D013D
:104840002E5F3F4F820F931F2091720630917306A7
:104850002817390769F4309729F4109275061092D9
:10486000740602C013821282B0937306A09372067C
:10487000DF91CF9108958F929F92AF92BF92CF9286
:10488000DF92EF92FF92CF93DF93EC016881798101
:104890008A819B81611571058105910521F464E28E
:1048A00079ED8BE597E02DE133EF41E050E00E9498
:1048B000962649015A019B01AC01A7EAB1E40E9486
:1048C000B5266B017C01ACEEB4EFA50194010E940A
:1048D000C326DC01CB018C0D9D1DAE1DBF1DB7FF96
:1048E00003C00197A109B04888839983AA83BB8339
:1048F000BC01CD019F77DF91CF91FF90EF90DF90CA
:10490000CF90BF90AF909F908F9008958F929F927D
:10491000AF92BF92CF92DF92EF92FF9260910A0125
:1049200070910B0180910C0190910D016115710541
:104930008105910521F464E279ED8BE597E02DE1A5
:1049400033EF41E050E00E94962649015A019B0155
:10495000AC01A7EAB1E40E94B5266B017C01ACEE84
:10496000B4EFA50194010E94C326DC01CB018C0D9C
:104970009D1DAE1DBF1DB7FF03C00197A109B04823
:1049800080930A0190930B01A0930C01B0930D0149
:10499000BC01CD019F77FF90EF90DF90CF90BF904B
:1049A000AF909F908F90089560930A0170930B01D0
:1049B00080930C0190930D010895FB01DC0102C06E
:1049C00005900D9241505040D8F7089540E756E0C9
:1049D0000E94EB240895FA01A191B081009719F487
:1049E0001097E1F0CD01DC01CD010D90002011F414
:1049F000C00113C0FB012191222319F02015D9F722
:104A0000F3CFFB012191201519F41E92119606C0D7
:104A10002223C1F70D900020A1F7D001FA01A19344
:104A2000B0830895BB272A3051F4992342F4BDE2A4
:104A300090958095709561957F4F8F4F9F4F0C9407
:104A40002225BB27FA01A62F621771058105910562
:104A5000330B30FB66F0AA27660F771F881F991F5C
:104A6000AA1FA21710F0A21B63953850A9F7A05DEA
:104A7000AA3308F0A95DA19336F7B111B193108262
:104A8000CA010C944325DC01FC01672F7191772347
:104A9000E1F7329704C07C916D9370836291AE17F9
:104AA000BF07C8F30895E89409C097FB3EF49095BA
:104AB0008095709561957F4F8F4F9F4F9923A9F0F7
:104AC000F92F96E9BB279395F69587957795679586
:104AD000B795F111F8CFFAF4BB0F11F460FF1BC0CA
:104AE0006F5F7F4F8F4F9F4F16C0882311F096E95D
:104AF00011C0772321F09EE8872F762F05C066230B
:104B000071F096E8862F70E060E02AF09A95660FC3
:104B1000771F881FDAF7880F9695879597F908957C
:104B20000E94A3250C9414260E94062638F00E94A9
:104B30000D2620F0952311F00C94FD250C940326EE
:104B400011240C9448260E94252670F3959FC1F3EA
:104B5000950F50E0551F629FF001729FBB27F00D2B
:104B6000B11D639FAA27F00DB11DAA1F649F662780
:104B7000B00DA11D661F829F2227B00DA11D621FCF
:104B8000739FB00DA11D621F839FA00D611D221F89
:104B9000749F3327A00D611D231F849F600D211D6D
:104BA000822F762F6A2F11249F5750409AF0F1F0F0
:104BB00088234AF0EE0FFF1FBB1F661F771F881F59
:104BC00091505040A9F79E3F510580F00C94FD256F
:104BD0000C9448265F3FE4F3983ED4F3869577958E
:104BE0006795B795F795E7959F5FC1F7FE2B880FFF
:104BF000911D9695879597F9089597F99F6780E895
:104C000070E060E008959FEF80EC089500240A941E
:104C10001616170618060906089500240A94121697
:104C20001306140605060895092E0394000C11F4CA
:104C3000882352F0BB0F40F4BF2B11F460FF04C077
:104C40006F5F7F4F8F4F9F4F089557FD9058440FD0
:104C5000551F59F05F3F71F04795880F97FB991FDB
:104C600061F09F3F79F08795089512161306140698
:104C7000551FF2CF4695F1DF08C016161706180625
:104C8000991FF1CF86957105610508940895E89400
:104C9000BB2766277727CB0197F90895F999FECFAF
:104CA00092BD81BDF89A992780B50895262FF9996C
:104CB000FECF1FBA92BD81BD20BD0FB6F894FA9AFF
:104CC000F99A0FBE01960895DB018F939F930E947E
:104CD000B526BF91AF91A29F800D911DA39F900D0E
:104CE000B29F900D11240895A1E21A2EAA1BBB1B9E
:104CF000FD010DC0AA1FBB1FEE1FFF1FA217B307A8
:104D0000E407F50720F0A21BB30BE40BF50B661FBD
:104D1000771F881F991F1A9469F760957095809581
:104D200090959B01AC01BD01CF010895052E97FB25
:104D30001EF400940E94AD2657FD07D00E947426F1
:104D400007FC03D04EF40C94AD2650954095309559
:104D500021953F4F4F4F5F4F0895909580957095E7
:104D600061957F4F8F4F9F4F08950E94FF26A59F0B
:104D7000900DB49F900DA49F800D911D1124089556
:104D8000B7FF0C94B5260E94B526821B930B08959D
:104D90002F923F924F925F926F927F928F929F924B
:104DA000AF92BF92CF92DF92EF92FF920F931F9339
:104DB000CF93DF93CDB7DEB7CA1BDB0B0FB6F894EA
:104DC000DEBF0FBECDBF09942A88398848885F842A
:104DD0006E847D848C849B84AA84B984C884DF809B
:104DE000EE80FD800C811B81AA81B981CE0FD11D7F
:104DF0000FB6F894DEBF0FBECDBFED010895A29FA0
:104E0000B001B39FC001A39F700D811D1124911D9E
:104E1000B29F700D811D1124911D08955058BB271C
:104E2000AA270E9426270C9414260E94062638F0F2
:104E30000E940D2620F039F49F3F19F426F40C94BB
:104E400003260EF4E095E7FB0C94FD25E92F0E9464
:104E5000252658F3BA17620773078407950720F0D1
:104E600079F4A6F50C9447260EF4E0950B2EBA2F94
:104E7000A02D0B01B90190010C01CA01A001112460
:104E8000FF27591B99F0593F50F4503E68F11A160C
:104E9000F040A22F232F342F4427585FF3CF46959D
:104EA00037952795A795F0405395C9F77EF41F16BF
:104EB000BA0B620B730B840BBAF09150A1F0FF0F89
:104EC000BB1F661F771F881FC2F70EC0BA0F621F75
:104ED000731F841F48F4879577956795B795F79565
:104EE0009E3F08F0B0CF9395880F08F09927EE0FFA
:104EF0009795879508950E942D2688F09F5798F0E2
:104F0000B92F9927B751B0F0E1F0660F771F881FCE
:104F1000991F1AF0BA95C9F714C0B13091F00E94E8
:104F20004726B1E008950C944726672F782F8827ED
:104F3000B85F39F0B93FCCF3869577956795B3950F
:104F4000D9F73EF490958095709561957F4F8F4F7E
:104F50009F4F0895991B79E004C0991F961708F098
:104F6000961B881F7A95C9F780950895AA1BBB1BCD
:104F700051E107C0AA1FBB1FA617B70710F0A61B59
:104F8000B70B881F991F5A95A9F780959095BC017A
:104F9000CD01089597FB072E16F4009407D077FDF6
:104FA00009D00E94B62707FC05D03EF49095819564
:104FB0009F4F0895709561957F4F0895EE0FFF1FE5
:104FC0000590F491E02D0994A0E0B0E0EAEEF7E25C
:104FD0000C94CC26EC01009721F4CB010E941A23FB
:104FE000B4C0FC01E60FF71F9C0122503109E21703
:104FF000F30708F4A8C0D9010D911C911197061769
:105000001707B0F00530110508F49BC0C8010497DC
:105010008617970708F495C002501109061B170B55
:10502000019311936D937C93CF010E94B22389C0A9
:105030005B01A01AB10A4C01800E911EA09174066A
:10504000B0917506612C712CE12CF12C109709F4AC
:1050500046C08D919C911197A815B905B1F56C01C9
:1050600042E0C40ED11CCA14DB0478F14C018A184A
:105070009B08640142E0C40ED11C1296BC901297AA
:105080001396AC91B5E0CB16D10440F0B282A38365
:1050900091828082D9016D937C9309C00E5F1F4F6E
:1050A000800F911FF90191838083EB2DFA2FE1147A
:1050B000F10431F0D7011396FC93EE93129741C09F
:1050C000F0937506E09374063CC06816790608F400
:1050D0003C017D0112960D90BC91A02DB7CF80911F
:1050E00072069091730688169906E1F466167706A3
:1050F000C8F48091040190910501009741F48DB7A7
:105100009EB74091080150910901841B950BE81747
:10511000F907C8F4F0937306E0937206F9017183FE
:1051200060830FC0CB010E941A237C01009759F0C5
:10513000A801BE010E94AF28CE010E94B223C70180
:1051400004C0CE0102C080E090E0CDB7DEB7EEE053
:105150000C94E82681E090E0F8940C94952BFB01E8
:10516000DC0102C001900D9241505040D8F70895E3
:10517000FB01DC010D900020E9F7119701900D92E1
:105180000020E1F70895FB01DC018D910190801969
:105190000110D9F3990B0895FB01DC0101900D92E8
:1051A0000020E1F70895FB01DC014150504048F038
:1051B00001900D920020C9F701C01D92415050404E
:1051C000E0F70895AEE0B0E0E8EEF8E20C94D62601
:1051D0000D891E8986E08C831A8309838FEF9FE7F0
:1051E0009E838D83AE01475E5F4F6F89788DCE01C0
:1051F00001960E940429EF81F885E00FF11F1082CB
:105200002E96E4E00C94F226ABE0B0E0EAE0F9E29E
:105210000C94C8266C017B018A01FC01178216825E
:10522000838181FFCCC1CE0101963C01F6019381BF
:10523000F70193FD859193FF81917F01882309F404
:10524000BAC1853239F493FD859193FF81917F0135
:10525000853229F4B60190E00E94FB2AE7CF912C19
:10526000212C312CFFE1F315D8F08B3279F038F492
:10527000803279F08332A1F4232D20611DC08D325C
:1052800061F0803369F4232D216016C0832D826084
:10529000382EE32DE4603E2E2AC0F32DF8601DC0A9
:1052A00037FC2DC020ED280F2A3040F08E32B9F4A3
:1052B00036FC81C1232D2064322E19C036FE06C073
:1052C0008AE0989E200D1124922E11C0EAE02E9EB5
:1052D000200D1124222EF32DF0623F2E08C08C36B3
:1052E00021F4832D8068382E02C0883641F4F701FE
:1052F00093FD859193FF81917F018111B3CF982F09
:105300009F7D9554933028F40C5F1F4F9FE3998342
:105310000DC0833631F0833771F0833509F059C001
:1053200021C0F801808189830E5F1F4F88248394F8
:10533000912C530113C02801F2E04F0E511CF801CB
:10534000A080B18036FE03C0692D70E002C06FEF0F
:105350007FEFC5010E94F02A4C018201F32DFF77F7
:105360003F2E16C0280122E0420E511CF801A080F9
:10537000B18036FE03C0692D70E002C06FEF7FEF91
:10538000C5010E94E52A4C01F32DF0683F2E8201F1
:1053900033FC1BC0822D90E088169906B0F4B6014C
:1053A00080E290E00E94FB2A2A94F4CFF50137FCBA
:1053B000859137FE81915F01B60190E00E94FB2A42
:1053C00021102A9421E0821A91088114910471F726
:1053D000E8C0843611F0893641F5F80137FE07C080
:1053E00060817181828193810C5F1F4F08C0608151
:1053F0007181072E000C880B990B0E5F1F4FF32D48
:10540000FF763F2E97FF09C0909580957095619526
:105410007F4F8F4F9F4FF0683F2E2AE030E0A3016F
:105420000E94372B882E861845C0853731F4232DEE
:105430002F7EB22E2AE030E025C0932D997FB92E21
:105440008F36C1F018F4883579F0B5C0803719F07F
:10545000883721F0B0C0E92FE061BE2EB4FE0DC048
:10546000FB2DF460BF2E09C034FE0AC0292F266030
:10547000B22E06C028E030E005C020E130E002C0D6
:1054800020E132E0F801B7FE07C0608171818281BE
:1054900093810C5F1F4F06C06081718180E090E0B6
:1054A0000E5F1F4FA3010E94372B882E8618FB2DFD
:1054B000FF773F2E36FE0DC0232D2E7FA22E89149E
:1054C00058F434FE0BC032FC09C0832D8E7EA82E0A
:1054D00005C0B82CA32C03C0B82C01C0B92CA4FE65
:1054E0000FC0FE01E80DF11D8081803321F49A2D5B
:1054F000997EA92E09C0A2FE06C0B394B39404C03D
:105500008A2D867809F0B394A3FC11C0A0FE06C0D2
:10551000B21488F4280C922C9B180EC0B21460F4BC
:10552000B60180E290E00E94FB2AB394F7CFB21458
:1055300018F42B1802C0982C212CA4FE10C0B60120
:1055400080E390E00E94FB2AA2FE17C0A1FC03C0EA
:1055500088E790E002C088E590E0B6010CC08A2D93
:10556000867859F0A1FE02C08BE201C080E2A7FC60
:105570008DE2B60190E00E94FB2A891438F4B6014E
:1055800080E390E00E94FB2A9A94F7CF8A94F3017B
:10559000E80DF11D8081B60190E00E94FB2A811088
:1055A000F5CF222009F442CEB60180E290E00E94BD
:1055B000FB2A2A94F6CFF6018681978102C08FEFED
:1055C0009FEF2B96E2E10C94E426FC0105906150DC
:1055D00070400110D8F7809590958E0F9F1F089509
:1055E000FC016150704001900110D8F780959095B2
:1055F0008E0F9F1F08950F931F93CF93DF93FB018F
:10560000238121FD03C08FEF9FEF2CC022FF16C026
:1056100046815781248135814217530744F4A08184
:10562000B1819D012F5F3F4F318320838C93268171
:1056300037812F5F3F4F3783268314C08B01EC01E6
:10564000FB010084F185E02D0995892BE1F6D80155
:1056500016968D919C911797019617969C938E9311
:105660001697CE01DF91CF911F910F910895FA0106
:10567000AA27283051F1203181F1E8946F936E7F91
:105680006E5F7F4F8F4F9F4FAF4FB1E03ED0B4E082
:105690003CD0670F781F891F9A1FA11D680F791FC3
:1056A0008A1F911DA11D6A0F711D811D911DA11DD4
:1056B00020D009F468943F912AE0269F11243019E4
:1056C000305D3193DEF6CF010895462F4770405D7F
:1056D0004193B3E00FD0C9F7F6CF462F4F70405D2E
:1056E0004A3318F0495D31FD4052419302D0A9F789
:1056F000EACFB4E0A6959795879577956795BA9583
:10570000C9F700976105710508959B01AC010A2E48
:1057100006945795479537952795BA95C9F7620F1F
:0E572000731F841F951FA01D0895F894FFCFDE
:10572E005218521800007606800001000000420256
:10573E004A0251025B02690272027A0282028D02F1
:10574E009602A002A90210101010101010102C308A
:10575E0010159B048B047B046B045B044B043B040D
:10576E002B04FF03CF03BF03AA0300000000B417EE
:10577E000E0C4B1701187C175A176E1700000000FD
:10578E00BE11BA11B6115C12A211CD11C911C511FB
:10579E0089117811771100000000CA1A8918AC1807
:1057AE00BB19531817120F12F2122313581357184E
:1057BE000912061203120012F9110C12F611F3114E
:1057CE00F011ED11E911E511E1117418DB11D7118A
:1057DE00D311000000000C05AB04A904A1048C0633
:1057EE000000000004160E0C0605D211AC13281290
:1057FE0006050D0E131516191A1C232526292A2CFB
:10580E003234594553004E4F007C00300031004772
:10581E00657474696E672054696D652066726F6D6C
:10582E00204750530047505320446174613A202062
:10583E00202000476F696E6720746F20536C65657A
:10584E00700A0057616B696E672055700A00202C34
:10585E0020002564005061796C6F61643A2020202D
:10586E0020004149445F494E49004D4F4E5F485715
:10587E00004D4F4E5F5458425546004E41565F41C3
:10588E004F50535441545553004E41565F44475068
:10589E0053004E41565F444F50004E41565F534F9A
:1058AE004C004E41565F53544154555300434647A6
:1058BE005F4E415635004346475F4E4156583500C0
:1058CE004346475F53424153004346475F43464773
:0458DE00000D0A00AF
:00000001FF
